:020000040800F2
:10000000C03600209D010008013A0008AF2B00080F
:10001000FD3900083D1500089D3C00080000000067
:1000200000000000000000000000000005010008C2
:100030009515000800000000490100082D3A00084D
:10004000B7010008B7010008B7010008B7010008B0
:10005000B7010008B7010008B7010008B7010008A0
:10006000B7010008B7010008B7010008B701000890
:10007000B7010008B7010008B7010008B701000880
:10008000B7010008B7010008B7010008B701000870
:10009000B7010008B7010008B7010008B701000860
:1000A000B7010008B7010008B7010008B701000850
:1000B000B7010008B7010008B7010008B701000840
:1000C000B7010008B7010008B7010008B701000830
:1000D000B7010008B7010008B7010008B701000820
:1000E000B7010008B7010008B7010008DFF810D019
:1000F00000F0B0FC00480047A1460008AFF30080C4
:10010000C0360020224B19680868B0E8F00F80F371
:100110000988BFF36F8F4FF0000080F311884EF015
:100120000D0E70470000000006480068006880F36C
:10013000088862B661B6BFF34F8FBFF36F8F00DFE1
:1001400000BF00BF08ED00E0EFF30980BFF36F8F41
:100150000F4B1A6820E9F00F106008B54FF0BF0090
:1001600080F31188BFF34F8FBFF36F8F04F05EFEF3
:100170004FF0000080F31188BDE808401968086856
:10018000B0E8F00F80F30988BFF36F8F704700BFAE
:1001900088040020EFF30580704700000648804780
:1001A00006480047FEE7FEE7FEE7FEE7FEE7FEE75C
:1001B000FEE7FEE7FEE7FEE7A73A0008ED000008CD
:1001C000202A04DB203A21FA02F00021704721FAAC
:1001D00002F3D040C2F12002914008431946704713
:1001E000D2B201E000F8012B491EFBD27047002279
:1001F000F6E710B513460A4604461946FFF7F0FF26
:10020000204610BD0022CBB20178994200D10246AF
:10021000401C0029F8D110467047F0B480EA010272
:10022000D40F4200B2EB410F02D2024608461146FB
:100230004A0042D0C30DDDB2C1F3C752AD1A202D22
:1002400035DAC1F3160141F4000204B15242C5F19E
:10025000200602FA06F12A411044B3EBD05F23D006
:10026000C4B1012DA0EBC35009DCF0BC4FF000423B
:1002700002EAC352DBB200F5000000F048BB4000C8
:1002800000F1807000EBC350A0F1807040EAD170A3
:10029000490009E0490841EAC071A0EBC35000F5EC
:1002A0000000400800EBC350F0BC00F027BB6142E7
:1002B000012202EB4101001BF6E7F0BC704781F020
:1002C0000041AAE780F00040A7E780EA010210B5EC
:1002D00002F00043400022D04A001FD0010E01EB83
:1002E0001261C0F35600C2F3560240F4000042F41B
:1002F0000002A0FB022000047F39140400D0401C3F
:1003000050EA124001D44000491EC2B20C0604EB70
:10031000D010401C4008802A02D003E0002010BD0D
:1003200020F00100002900DA0020184310BD30B48D
:1003300080EA010202F0004530F0004221F0004066
:1003400013D090B1C30DD40DC2F31601C0F3160043
:10035000E41A41F4000140F400027D34914201D3DB
:10036000641C00E04900002C02DA30BC0020704719
:100370004FF400000023914201D3891A034340083F
:100380004FEA4101F7D151B1914202D14FF0004102
:1003900005E002D24FF0010101E06FF0010103EB33
:1003A000C450284430BC00F0A9BA2DE9FE4F804665
:1003B00081EA0300C00F0C46009021F0004123F0B9
:1003C0000045B8EB0200A94105D2404621469046BF
:1003D0001C460B46024623F00040104347D0270D31
:1003E000C7F30A00C3F30A510290401A0190402853
:1003F0006BDAC3F3130040F4801B0098924620B1DF
:100400000023D2EB030A63EB0B0B01985946C0F1B2
:100410004002504600F051FA06460D4650465946F5
:10042000019A00F059FA10EB08006141002487EAB4
:10043000115284EAE7731A4340D0009A62B3019ADA
:10044000012A4FEA075215DC001B61EB02014FF055
:10045000004202EA0752CDE90042001C41F580113A
:1004600032462B4600F090FA03B0BDE8F08F4046CC
:100470002146F9E7001B61EB0201001C41F58013E6
:1004800000185B412018A2F5001747EB030140EA72
:10049000D570B6196D4111E06D084FEA360645EA90
:1004A000C0754FEA0752001B61EB0201001C41F5C9
:1004B000801149084FEA30000019514132462B465D
:1004C00003B0BDE8F04F00F050BA009801224000A0
:1004D0000023D0EB020263EBE073009821464FEA61
:1004E000E074B8EB000061EB0401E9E783F000433E
:1004F0005BE781F0004158E72DE9FE4F81EA0304F4
:1005000004F0004421F0004100944FF0000B23F070
:10051000004350EA01045ED052EA03045BD0C3F307
:100520000A54C1F30A552C44A4F2F3340194A0FBFD
:100530000254C1F3130141F48011C3F3130343F4D4
:10054000801301FB024400FB034E840A970A44EA2D
:10055000815447EA8357A4FB076802958D0A05FB7F
:1005600007854FEA932C04FB0C542705029D4FEAA4
:10057000065847EA1637B5EB08056EEB070C870EF1
:10058000920E47EA811742EA8312A7FB0201B6EBFB
:100590000B0164EB00042B0D43EA0C335E1844EBB3
:1005A0001C50DA465146E7FB0201C5F313044FEA3B
:1005B0000B3343EA14534FEA0432019C43EA060327
:1005C000A4F10C040294009CCDE900B400F0DCF925
:1005D00003B0BDE8F08F00200146F9E72DE9F04DAA
:1005E00081EA030404F0004B21F0004514464FF06B
:1005F000000A23F0004150EA050220D054EA01022B
:100600001DD0C5F30A570246C5F31303C1F3130007
:10061000C1F30A5640F4801543F48013A7EB060893
:10062000101BD64608F2FD3873EB050002D308F123
:10063000010801E092185B41B8F1000F03DA0020D5
:100640000146BDE8F08D00204FF480110646844637
:100650000EE0171B73EB050705D3121B63EB0503B5
:1006600006434CEA010C49084FEA300092185B41FE
:1006700050EA0107EDD152EA030012D082EA0400E9
:1006800083EA0501084305D0101BAB4106D20122C5
:10069000002306E000224FF0004302E06FF0010269
:1006A00053101AEB06004CEB085110EB0A0041EB1B
:1006B0000B01BDE8F04D00F058B9C10F80EAE070C1
:1006C0000844CA079623002100F021B9962300228E
:1006D000114600F01CB90EB5C10F80EAE070084465
:1006E000CA07002140F233438DE80E000A460B464C
:1006F00000F04AF903B000BD0EB540F2334102915B
:100700000021CDE900110A460B4600F03DF903B087
:1007100000BD00F0004220F00040C10DC0F3160003
:1007200040F400007F2901DA00207047962903DC9D
:10073000C1F19601C84001E096398840002AF4D002
:1007400040427047C1F30A5210B5C1F3130140F2A1
:10075000FF3341F480119A4201DA002010BD40F2CB
:1007600033439A42A2F2334203DC5242FFF728FDA0
:1007700010BD904010BD00F0004230F000400AD0A3
:10078000C10D01F56071C0F3160042EA0151C208C3
:1007900040071143704700200146704730B5041EE2
:1007A00071F1000404DB4FF00044404264EB0101AE
:1007B000141E73F1000405DB1C464FF00043524247
:1007C00063EB0403994208BF904230BD01F000433F
:1007D00030B421F0004150EA010206D00A0DA2F522
:1007E0006072C1F31301002A02DC30BC00207047A4
:1007F000440F44EAC104C100E01830BC00EBC25011
:1008000000F07CB8002801DBC0F10040002901DBCA
:10081000C1F1004181427047002801DBC0F1004076
:10082000002901DBC1F100418842704730B50B4619
:10083000014600202022012409E021FA02F59D4210
:1008400005D303FA02F5491B04FA02F52844151EE4
:10085000A2F10102F1DC30BD2DE9F05F0546002078
:1008600092469B4688460646814640241BE0284621
:10087000414647462246FFF7A3FC53465A46C01A54
:10088000914110D311461846224600F016F82D1A51
:1008900067EB01084F4622460120002100F00DF8C9
:1008A00017EB00094E41201EA4F10104DFDC48468D
:1008B00031462A464346BDE8F09F202A04DB203A11
:1008C00000FA02F1002070479140C2F1200320FAA3
:1008D00003F3194390407047202A06DBCB17203AD8
:1008E00041FA02F043EAE07306E041FA02F3D04035
:1008F000C2F1200291400843194670470029A8BF61
:100900007047401C490008BF20F00100704710B438
:10091000B0FA80FC00FA0CF050EA010404BF10BCED
:10092000704749B1CCF1200421FA04F411FA0CF11A
:1009300018BF012121430843A3EB0C01CB1D4FEA53
:1009400000614FEA102042BF002010BC704700EB4E
:10095000C35010440029A4BF10BC7047401C49007C
:1009600008BF20F0010010BC704710B5141E73F1D1
:10097000000408DA401C41F1000192185B411A435F
:1009800001D120F0010010BD2DE9F04D92469B46AB
:1009900011B1B1FA81F202E0B0FA80F22032904651
:1009A000FFF78BFF04460F4640EA0A0041EA0B01BD
:1009B00053465A46084313D0114653EA010019D052
:1009C000C8F140025046FFF7FBFB05460E46504675
:1009D00059464246FFF771FF084305D0012004E065
:1009E00020463946BDE8F08D0020054346EAE07612
:1009F0002C4337430A986305E40AA0EB0800002261
:100A0000FD0A44EA47540A3002D500200146E9E7CE
:100A1000010510196941DDE9084500196941BDE882
:100A2000F04DA2E7C1F30A52C1F3130140F2FF33C4
:100A300041F480119A4202DA00200146704740F2E8
:100A400033439A42A2F2334202DC5242FFF7B8BB70
:100A5000FFF733BF064C074D06E0E06840F00103A6
:100A600094E8070098471034AC42F6D3FFF742FBF6
:100A7000206D0008406D000830B58C1810F8012B6F
:100A800012F00F0301D110F8013B120906D110F842
:100A9000012B03E010F8015B01F8015B5B1EF9D14B
:100AA00001E001F8013B521EFBD1A142E6D3002038
:100AB00030BD00002DE9FE435948056801240BE0D4
:100AC000574951F824002946FFF79CFE02D25448AA
:100AD00050F82450601CC4B2052CF1DB00200190BA
:100AE000029000242DE04E4951F824002946FFF7DA
:100AF000E6FB8046FFF73FFE06464A4A4A4BFFF7B1
:100B00004DFE19D8464951F82400FFF734FE064639
:100B10004FF06632454BFFF741FE0DD2444890F945
:100B20000000002808DB424890F90000282803DC78
:100B3000012001A9085502E0002001A90855601C08
:100B4000C4B2052CCFDB00241CE001A8005D012805
:100B500016D101A9601C085C012811D1304B621C20
:100B600053F822101A4652F82400FFF755FE04D815
:100B7000002101AA601C115402E0002001A90855BF
:100B8000601CC4B2042CE0DB9DF8041029484078B6
:100B900061F30000274948709DF80510254840780A
:100BA00061F34100234948709DF8061021484078C0
:100BB00061F382001F4948709DF807101D48407876
:100BC00061F3C3001B4948709DF80810194840782C
:100BD00061F304101749487008464178012002F07B
:100BE00051FE0020009001226946104602F06CFD83
:100BF00098B100240FE09DF80000204100F00100B2
:100C000008B10DA000E00DA00246611C0CA003F08D
:100C100047F8601CC4B2052CEDDBBDE8FE83000084
:100C2000702E00209A9999999999A93F66660A4071
:100C300004050020843200204F4E00004F4646003D
:100C4000B5DA2564BDDAB5E7B3D82CBEF9BAE2B996
:100C5000DCC0ED25730D0A002DE9FE4F2048006829
:100C60000290022202A9322002F02EFD20B91DA01E
:100C700003F016F8BDE8FE8F9DF809009DF80810F6
:100C800040EA01200FFA80FABAF1000F03DACAF144
:100C900000000FFA80FA5046FFF71DFD0646174A7E
:100CA000174BFFF729FC04460022164BFFF796FC72
:100CB00080460022144BFFF791FCCDE90001FFF7BD
:100CC00085FD1249086008460068FFF754FD044698
:100CD00022460B460EA002F0E3FF00BFCAE7000069
:100CE00094520008B6C1C8A1B5E7C1F7435243D03A
:100CF000A3D1E9CAA7B0DC0D0A000000E17A14AE66
:100D000047E1204000408F400000144000050020D3
:100D1000B5E7C1F7B4F3D0A13A25660D0A0000008B
:100D2000F0B585B0002004900390012204A9502062
:100D300002F0CAFC012203A9592002F0C5FC9DF86B
:100D40000C1040F26D1202EB61119DF8102002F0C0
:100D50000C0241EA4200FFF7BEFC06460022164B99
:100D6000FFF73CFC0446FFF731FD144908600122FF
:100D70001349512002F0A8FC10480068FFF7FBFC63
:100D800004460D462F210FA0FFF73CFA28B12F2172
:100D90000CA0FFF737FA401C00E00AA006460848FE
:100DA00090F90000FC223146CDE9004502900BA0ED
:100DB00002F076FF05B0F0BD00408F40F404002043
:100DC000F80400202E2E5C4170705C4170705F4210
:100DD0006174746572792E63000000005B25733ABC
:100DE00025645D6761696E3A25662C6F666673657A
:100DF000743A2523780D0A002DE9FC5F002001904C
:100E0000022201A92A2002F05FFC20B91EA002F0F4
:100E100047FFBDE8FC9F234991F9001001EB8100D9
:100E2000FFF74BFC00909DF805109DF8042041EA67
:100E30000220FFF742FC82461B4801684FF08140C8
:100E4000FFF743FA83465146FFF73FFA8146009980
:100E5000FFF7E3F90446FFF78EFC07460022134B29
:100E6000FFF7BCFB0546FFF7B1FC114908600846D7
:100E70000068FFF780FC044622460B460DA002F0F6
:100E80000FFF00BFC5E70000B5E7B3D8D7E9D7DC4F
:100E9000B5E7D1B9435243D0A3D1E9CAA7B0DC0D1D
:100EA0000A000000F8040020F404002000408F40F5
:100EB000FC040020B5E7B3D8D7E9CEE5BDDAB5E745
:100EC000B3D8D7DCB5E7D1B93A2566760D0A00006C
:100ED0002DE9FF5F00200190029003900A2201A9F2
:100EE0000C2002F0F1FB20B920A002F0D9FEBDE8F1
:100EF000FF9F002435E0254890F90000FFF7DDFB57
:100F00006100491C01AA0090515C01AB13F8142048
:100F100041EA0220FFF7D1FB83461D48016858468D
:100F2000FFF7D3F982460099FFF777F98146FFF77B
:100F300022FC07460022174BFFF750FB0546FFF740
:100F400045FC154941F8240051F82400FFF713FC33
:100F500005462A460B46611C10A002F0A1FE601C4B
:100F6000C4B2052CC7DB00BFC1E70000BBF1C8A1BC
:100F7000B5E7B3D8D7E9B5C4B5E7D1B9435243D043
:100F8000A3D1E9CAA7B0DC0D0A000000F8040020D4
:100F9000F404002000408F40702E0020B5DA256454
:100FA000B8F6B5E7B3D82CB5E7B3D8CEAA256676A0
:100FB0000D0A000010B502F04FFBFFF7B1FE00F084
:100FC00001F810BD2DE9FF5F5748007920F00800B7
:100FD0000830554908710846007920F0100010309B
:100FE000087108460179042002F04CFC4E48407913
:100FF00020F0400040304C4948710846407920F0CC
:101000000100401C48710846407920F00200801C15
:10101000487108464179052002F034FC4248807945
:1010200020F080008030404988710846807920F0A7
:101030000700C01D88710846807920F0180018301C
:10104000887108468179062002F01CFC3648C07978
:1010500020F00F000F303449C8710846C07920F0E5
:1010600070007030C8710846C179072002F00AFC90
:101070002D48007A20F0C000C0302B490872084685
:10108000007A20F03000303008720846017A0820DB
:1010900002F0F8FB25480068FFF76DFB06460F4697
:1010A000234890F90000FFF716FB82460022214BEF
:1010B000FFF71FFA804632463B46FFF78FFA044699
:1010C000FFF740FB80B203900398C0F30710029033
:1010D00016480068FFF74FFB04460D46144890F988
:1010E0000000FFF7F8FA06460022134BFFF701FA5B
:1010F000804622462B46FFF771FA8246FFF722FB15
:1011000080B201900198C0F3071000900920029965
:1011100002F0B8FB0A20009902F0B4FB19210B2061
:1011200002F0B0FBBDE8FF9F84320020F4040020F1
:10113000F8040020009AB04000E0A5402DE9FF5FD0
:10114000002003900290002408E0504850F824103A
:101150000398FFF762F80390601CC4B2052CF4DB1F
:101160004B490398FFF7E3F802900298FFF703FB5F
:1011700005460022474BFFF7BFF90746FFF7E2FAA3
:1011800084B2204600F0DCF943490870434890F9E6
:101190000000002826DB414890F90000282821DCC7
:1011A0003E4991F90010A1F11900FFF794FA3C4A69
:1011B0003C4BCDE90001FFF79FF9824600223A4BF4
:1011C000FFF7F3F806460F4633480078FFF794FA26
:1011D000804632463B46FFF78FF90446FFF7B2FAE6
:1011E0002D4908702D4890F90000282821DD2B4951
:1011F00091F90010A1F12800FFF76DFA82462B4A01
:101200002B4BFFF779F980462A4A2B4BFFF7CDF895
:1012100004460D4620480078FFF76EFA064622463F
:101220002B46FFF769F9CDE90001FFF78BFA1A4960
:1012300008701A4890F90000002820DA174991F93F
:1012400000100846FFF747FA06461C4A1C4BFFF7FA
:1012500053F9044600221B4BFFF7A7F88046894646
:101260000D480078FFF748FA42464B46CDE90001A9
:10127000FFF742F98246FFF765FA0749087006480A
:10128000017811A002F00CFDBDE8FF9F702E002038
:101290000000A04000408F4005050020040500200C
:1012A0007B14AE47E17A74BF0000F03FFCA9F1D295
:1012B0004D6280BF9A9999999999ED3FFA7E6ABCDF
:1012C000749368BF0000F23FB5E7B3D8CAA3D3E078
:1012D000B5E7C1BF3A25640D0A00000010B501F062
:1012E000E3FF10BD70B58AB027480068FFF743FAE6
:1012F000044622460B4625A108A802F0E1FC012085
:10130000102308AA1E210090022002F069F921484A
:101310000068FFF730FA044622460B461EA106A8D5
:1013200002F0CEFC0120102306AA1E2100904020CE
:1013300002F056F91A4890F900201AA104A802F008
:10134000BFFC0120102304AA30210090022002F0EB
:1013500047F916480078FFF7B9F90646FFF70BFA88
:10136000044622460B4612A102A802F0A9FC012065
:10137000102302AA30210090402002F031F902F03F
:101380000BF80AB070BD0000FC040020563A25346A
:101390002E31660000050020433A25342E316600C8
:1013A00004050020543A25640000000005050020D3
:1013B000533A25342E3166252500000010B500F083
:1013C00003F8FFF78FFF10BD38B500240BE00120B4
:1013D000210118310090C8B210232246002102F0EA
:1013E0009FF8601CC4B2052CF1DB38BD1CB5104859
:1013F000032100238022CDE900100EA10F4803F045
:1014000079FD0F48052100238022CDE900100DA1B0
:101410000E4803F06FFD0E48042100238022CDE921
:1014200000100CA10D4803F065FD03F0C1FC1CBDCC
:10143000E80400206F6C65640000000009470008A4
:10144000EC0400206261747465727900E54500085F
:10145000F004002062616C616E636500D545000890
:101460002DE9FE4F00200290022202A92C2002F05A
:101470002BF920B922A002F013FCBDE8FE8F9DF8E5
:1014800009109DF8082041EA02214FF4BF7201FBC8
:1014900002F0FFF720F907460022204BFFF79EF8E5
:1014A0000546FFF793F904462046FFF764F907461F
:1014B0004FF066321A4BFFF71CF805460E462146E0
:1014C0001848FEF702FF0746FFF755F92A4633464C
:1014D000CDE90001FFF782F88246FFF777F98146F0
:1014E0004846FFF716F9054600F03EF80E49087029
:1014F000084690F900100DA002F0D2FB00BFBCE737
:10150000B6C1C8A1CEC2B6C8BCC4B4E6C6F7435281
:1015100043D0A3D1E9CAA7B0DC0D0A0080842E41D4
:1015200066660A4000401C4604050020B5E7B3D8B3
:10153000D7E9CEC2B6C83A256400000000BFFEE776
:1015400038B504460548064B2246652100900548FB
:1015500003F084F8C5B2284638BD0000EC02002034
:10156000F0020020F4020020F8B504460648074BBC
:101570002246B5210090064803F070F8C5B2C5F1C7
:101580007D0670B2F8BD000014000020100000209D
:1015900018000020704772B600BFFEE770B5044621
:1015A00000F0A6F906462546681C10B104480078EC
:1015B000054400BF00F09CF9801BA842FAD370BD1F
:1015C000080000202DE9F8470346002294466EE10A
:1015D0004FF0010808FA02F4D1F8008008EA04008C
:1015E000A0427DD1DFF8DCA2D1F80480A8EB0A0983
:1015F000D0453AD014DCB8F1030F50D009DCB8F173
:10160000000F31D0B8F1010F1CD0B8F1020F49D151
:1016100020E0B8F1110F18D0B8F1120F42D11EE03E
:10162000B9F5881F25D006DCB9F5803F20D0B9F583
:10163000801F37D11AE0B9F5001F18D0B9F5041F83
:1016400030D117E0D1F80CC02DE0D1F80C8008F1B2
:10165000040C28E0D1F80C8008F1080C23E0D1F844
:101660000C8008F10C0C1EE000BF00BF00BF00BFE3
:1016700000BF00BFD1F80880B8F1000F02D14FF0D1
:10168000040C0BE0D1F80880B8F1010F03D14FF042
:10169000080C1C6102E04FF0080C5C6103E04FF0A5
:1016A000000C00E000BF00BFFF2801D8984601E011
:1016B00003F104084646FF2802D84FEA820803E0F7
:1016C000A2F108084FEA88084746D6F800804FF094
:1016D0000F0909FA07F928EA09080CFA07F900E0E6
:1016E00088E048EA0908C6F80080D1F8048008F0CC
:1016F0008058B8F1805F7DD100BFDFF8CC81D8F889
:10170000188048F00108DFF8C091C9F81880C84671
:10171000D8F8188008F00108CDF8008000BF00BF9D
:101720004FEAB9384FEA920958F829504FEA8278BF
:101730004FEA18794FF00F0808FA09F825EA08056A
:10174000DFF88881434502D14FF0000816E0DFF84A
:101750008081434502D14FF001080FE0DFF874812A
:10176000434502D14FF0020808E0DFF86C814345A1
:1017700002D14FF0030801E04FF004084FEA8279EC
:101780004FEA197908FA09F848EA0505DFF84C81AB
:101790004FEA920948F82950D1F8048008F48018DB
:1017A000B8F5801F0AD1DFF83881D8F8008048EA00
:1017B0000008DFF82C91C9F8008009E0DFF82081EB
:1017C000D8F8008028EA0008DFF81491C9F80080F2
:1017D000D1F8048008F40018B8F5001F10D1DFF824
:1017E000008108F10408D8F8008048EA0008DFF812
:1017F000F09000E05AE009F10409C9F800800DE01A
:10180000DFF8DC8008F10408D8F8008028EA000836
:10181000DFF8CC9009F10409C9F80080D1F8048000
:1018200008F40038B8F5003F0ED1DFF8B480A8F115
:101830000408D8F8008048EA0008DFF8A490A9F16D
:101840000409C9F800800DE0DFF89480A8F10408CD
:10185000D8F8008028EA0008DFF88490A9F104098C
:10186000C9F80080D1F8048008F48038B8F5803FCA
:101870000ED1DFF86C80A8F10808D8F8008048EA9B
:101880000008DFF85C90A9F10809C9F800800DE0B4
:10189000DFF84C80A8F10808D8F8008028EA000892
:1018A000DFF83C90A9F10809C9F80080521CD1F872
:1018B000008028FA02F8B8F1000F7FF489AEBDE885
:1018C000F8870000000011100010024000080140DD
:1018D000000C0140001001400014014008000140CC
:1018E000080401400AB1016101E00B040361704783
:1018F00001480068704700000000002070B50446F1
:101900000CB9012070BD94F83D0028B9002084F87E
:101910003C00204600F0FEFB242084F83D002068B7
:10192000006820F00100216808602068006840F429
:101930000040216808602068006820F400402168A9
:10194000086000F0B1FD05465C496068884206D831
:101950005B48854201D2012007E0002005E059489C
:10196000854201D2012000E00020012800D1C9E712
:101970005548B5FBF0F62068406820F03F00304342
:10198000216848604D496068884201D8701C07E0B2
:101990004FF4967070434FF47A71B0FBF1F0401C35
:1019A0002168096A21F03F01084321680862434920
:1019B0006068884214D8681E61684900B0FBF1F085
:1019C000401CC0F30B00042801D204203DE0681E37
:1019D00061684900B0FBF1F0401CC0F30B0034E03B
:1019E000A06838B9681E616801EB4101B0FBF1F0F5
:1019F000401C0AE0681E616801EBC10202EB0111A4
:101A0000B0FBF1F0401C40F48040C0F30B0008B97B
:101A100001201AE0A06848B9681E616801EB410125
:101A2000B0FBF1F0401CC0F30B000CE0681E6168D5
:101A300001EBC10202EB0111B0FBF1F0401CC0F35D
:101A40000B0040F4804040F400402168C9694CF626
:101A5000FF72914308432168C861D4E90701084334
:101A60002168096821F0C001084321680860D4E9B1
:101A7000031008432168896848F2FF329143084304
:101A800021688860D4E9050108432168C96821F00C
:101A9000FF0108432168C8602068006840F0010029
:101AA0002168086000202064202084F83D00002088
:101AB000206384F83E0000BF24E70000A0860100F8
:101AC00080841E0000093D0040420F002DE9F843CC
:101AD0000446894616461F46DDF82080FFF708FFBA
:101AE000054694F83D0020287ED119230122514952
:101AF0002046009501F02FFA10B10220BDE8F883CE
:101B000000BF94F83C00012801D10220F6E7012033
:101B100084F83C0000BF2068006800F0010028B98C
:101B20002068006840F001002168086020680068B3
:101B300020F4006021680860212084F83D00102016
:101B400084F83E000020206466626785608D2085F1
:101B50003948E0622B4642464946204601F048F8A3
:101B600008B10120CAE700BF00200090206840694A
:101B7000009020688069009000BF00BF44E02A46C2
:101B80004146204601F008FB50B1206C042805D1E5
:101B90002068006840F40070216808600120ADE70B
:101BA000606A007821680861606A401C6062608D2C
:101BB000401E6085208D401E208520684069C0F34E
:101BC000800070B1208D60B1606A00782168086182
:101BD000606A401C6062608D401E6085208D401EE2
:101BE00020852A46414600E022E0204601F080F9A7
:101BF00050B1206C042805D12068006840F40070C2
:101C000021680860012079E7208D0028B7D120687D
:101C1000006840F4007021680860202084F83D00CE
:101C2000002084F83E0000BF84F83C0000BF65E758
:101C3000022063E7020010000000FFFF2DE9FE4FC5
:101C400004460F4690469946DDE90CAB0E9E0020F7
:101C50000290FFF74DFE054694F83D00202872D112
:101C600019230122CE492046009501F074F910B1E4
:101C70000220BDE8FE8F00BF94F83C00012801D18E
:101C80000220F6E7012084F83C0000BF20680068CD
:101C900000F0010028B92068006840F001002168C8
:101CA00008602068006820F4006021680860222035
:101CB00084F83D00402084F83E0000202064C4F8F1
:101CC00024A0A4F82AB0608D2085B648E0624B4677
:101CD000424639462046CDE9006500F0E9FF08B1EB
:101CE0000120C6E7208D88B900BF00200190206840
:101CF0004069019020688069019000BF00BF2068A2
:101D0000006840F40070216808604BE0208D0128D5
:101D10001AD12068006820F480602168086072B6DB
:101D200000BF002001902068406901902068806910
:101D3000019000BF00BF2068006840F40070216877
:101D4000086062B62EE029E1208D022819D12068B2
:101D5000006840F400602168086072B600BF00208F
:101D6000019020684069019020688069019000BF5F
:101D700000BF2068006820F480602168086062B6B7
:101D800010E02068006840F480602168086000BFAF
:101D900000200190206840690190206880690190CE
:101DA00000BF00BFEBE0208D03287DD8208D0128E7
:101DB00015D12A463146204601F0A9F908B1012083
:101DC00057E720680069616A0870606A401C6062B9
:101DD000208D401E2085608D401E6085CFE0208DC7
:101DE00002282CD1334600226F492046009501F08D
:101DF000B2F808B101203CE772B62068006840F4F0
:101E000000702168086020680069616A0870606A73
:101E1000401C6062208D401E2085608D401E6085C4
:101E200062B620680069616A0870606A401C60627E
:101E3000208D401E2085608D401E60859FE03346CA
:101E4000002259492046009501F085F808B101208B
:101E50000FE72068006820F480602168086072B68F
:101E600020680069616A0870606A401C6062208DA9
:101E7000401E2085608D401E60854C4800681921F9
:101E8000B0FBF1F04FF47A71B0FBF1F0C0EBC000A1
:101E900000EB8000029000BF0298401E0290029862
:101EA000A8B90020206300E039E0202084F83D003C
:101EB000002084F83E00206C40F02000206462B6D0
:101EC00000BF002084F83C0000BF0120D1E620685C
:101ED0004069C0F380000028DED02068006840F42C
:101EE00000702168086020680069616A0870606A93
:101EF000401C6062208D401E2085608D401E6085E4
:101F000062B620680069616A0870606A401C60629D
:101F1000208D401E2085608D401E60852FE02A4662
:101F20003146204601F0F3F808B10120A1E620680F
:101F30000069616A0870606A401C6062208D401E02
:101F40002085608D401E608520684069C0F3800058
:101F5000A8B1208D032805D12068006820F4806096
:101F60002168086020680069616A0870606A401C26
:101F70006062208D401E2085608D401E6085208D12
:101F800000287FF410AF202084F83D00002084F862
:101F90003E0000BF84F83C0000BF6AE6022068E60D
:101FA000020010000000FFFF040001000C000020F0
:101FB0002DE9FC5F04460F4690469946DDE90CABDF
:101FC0000E9EFFF795FC054694F83D0020287DD134
:101FD000192301224D492046009500F0BCFF10B1A5
:101FE0000220BDE8FC9F00BF94F83C00012801D10D
:101FF0000220F6E7012084F83C0000BF206800685A
:1020000000F0010028B92068006840F00100216854
:1020100008602068006820F40060216808602120C2
:1020200084F83D00402084F83E0000202064C4F87D
:1020300024A0A4F82AB0608D20853548E0624B4684
:10204000424639462046CDE9006500F0E1FE08B180
:102050000120C6E731E02A463146204601F09CF8CF
:1020600050B1206C042805D12068006840F400704D
:10207000216808600120B4E7606A0078216808617F
:10208000606A401C6062208D401E2085608D401E6D
:10209000608520684069C0F3800070B1208D60B118
:1020A000606A007821680861606A401C6062208D67
:1020B000401E2085608D401E6085208D0028CAD17D
:1020C0002A463146204600F013FF00E01CE050B1E4
:1020D000206C042805D12068006840F40070216855
:1020E000086001207DE72068006840F400702168E6
:1020F0000860202084F83D00002084F83E0000BFE6
:1021000084F83C0000BF6CE702206AE70200100080
:102110000000FFFF10B586B0044600200290039037
:102120000490059016492068884226D100BF1548C2
:10213000806940F00800134988610846806900F012
:102140000800019000BF00BF4FF4406002901220D1
:1021500003900320059002A90B48FFF733FA00BF54
:102160000848C06940F480000649C8610846C06953
:1021700000F48000019000BF00BF06B010BD000059
:102180000058004000100240000C01400348006865
:10219000034909780844014908607047000000209D
:1021A0000800002010B50848006840F010000649FB
:1021B0000860032000F098F80F2000F007F800F006
:1021C0002BF8002010BD00000020024070B504462E
:1021D0000E4800784FF47A71B1FBF0F00C490968B1
:1021E000B1FBF0F5284600F0E9FB08B1012070BD15
:1021F000102C07D200222146501E00F037F8054867
:10220000046001E00120F2E70020F0E70800002070
:102210000C0000200400002008B500BF11488069B0
:1022200040F001000F4988610846806900F0010014
:10223000009000BF00BF00BF0846C06940F080505A
:10224000C8610846C06900F08050009000BF00BF20
:1022500000BF0549486820F0E06040F00070486029
:1022600000BF08BD00100240000001402DE9F05FF2
:1022700080460D461646002701F036FD07463946D2
:102280002A46334601F00700C0F1070ABAF1040FED
:1022900002D94FF0040A01E0C0F1070AD14600F16B
:1022A000040ABAF1070F02D24FF0000A01E0A0F1D0
:1022B000030AD4464FF0010A0AFA09FAAAF1010A00
:1022C0000AEA020A0AFA0CFA4FF0010B0BFA0CFBAD
:1022D000ABF1010B0BEA030B4AEA0B042146404623
:1022E00001F00AFDBDE8F09F00BF00F00702064BB9
:1022F00019684FF6FF031940044B0B4343EA0221D0
:10230000014B196000BF70470CED00E00000FA05BA
:1023100070B504460D460CB9012070BD5A480068DE
:1023200000F00700A8420ED25748006820F00700CE
:102330002843554908600846006800F00700A84295
:1023400001D00120E9E7207800F0020002281DD129
:10235000207800F00400042805D14C48406840F47F
:10236000E0604A494860207800F00800082805D15C
:102370004648406840F460504449486043484068DB
:1023800020F0F000A168084340494860207800F040
:10239000010078B36068012806D13C48006800F469
:1023A000003090B90120B8E76068022806D13748AC
:1023B000006800F0007040B90120AEE733480068C3
:1023C00000F0020008B90120A7E73048406820F07B
:1023D0000300616808432D494860FFF789FA064603
:1023E00009E0FFF785FA801B41F28831884202D963
:1023F000032092E707E02548406800F00C00616880
:10240000B0EB810FEDD12048006800F00700A84232
:102410000ED91D48006820F0070028431A490860BB
:102420000846006800F00700A84201D0012074E7C8
:10243000207800F00400042807D11448406820F4F4
:10244000E060E168084311494860207800F0080026
:10245000082808D10D48406820F46050216940EAFE
:10246000C1000A49486000F03FF808494968C1F3D3
:102470000311074A515CC8400649086006480068D5
:10248000FFF7A4FE002048E70020024000100240B1
:102490007A5200080C000020040000200148006867
:1024A000704700000C00002000B5FFF7F7FF04495B
:1024B0004968C1F30221034A515CC84000BD0000D5
:1024C000001002408A52000800B5FFF7E7FF0449F8
:1024D0004968C1F3C221034A515CC84000BD0000F5
:1024E000001002408A52000870B50021002200242A
:1024F00000230020134D696801F00C05F5B1042D8F
:1025000002D0082D19D101E00F4819E00F4DC1F399
:102510008346AB5D01F4803555B10A4D6D68C5F356
:1025200040450B4E725D084D5D43B5FBF2F402E091
:10253000084D03FB05F4204602E000BF024800BF3F
:1025400000BF70BD0010024000127A0068520008FF
:102550007852000800093D00F8B504460CB9012086
:10256000F8BD207800F00100002878D0F8484068D5
:1025700000F00C0004280CD0F548406800F00C0076
:10258000082811D1F248406800F48030B0F5803F4F
:102590000AD1EF48006800F4003000285FD060687E
:1025A00000285CD10120DBE700BF6068B0F5803F08
:1025B00006D1E748006840F48030E549086028E02B
:1025C000606858B9E248006820F48030E04908604B
:1025D0000846006820F4802008601AE06068B0F5C2
:1025E000A02F0BD1DA48006840F48020D849086059
:1025F0000846006840F4803008600AE0D44800686B
:1026000020F48030D24908600846006820F4802019
:10261000086000BF606888B1FFF76AF9054606E008
:10262000FFF766F9401B642801D9032098E7C848E2
:10263000006800F400300028F2D010E0FFF758F9ED
:10264000054606E0FFF754F9401B642801D9032032
:1026500086E7BF48006800F400300028F2D12078F7
:1026600000F00200022857D1B948406800F00C0081
:1026700050B1B748406800F00C00082818D1B448A1
:10268000406800F4803098B9B148006800F002005A
:1026900020B12069012801D0012061E7AC48006821
:1026A00020F0F800616940EAC100A949086033E000
:1026B0002069E8B10120A7490860FFF719F905462C
:1026C00006E0FFF715F9401B022801D9032047E770
:1026D0009F48006800F002000028F2D09C48006883
:1026E00020F0F800616940EAC1009949086013E0F0
:1026F000002098490860FFF7FBF8054606E0FFF761
:10270000F7F8401B022801D9032029E79048006808
:1027100000F002000028F2D1207800F0080008281C
:102720002DD1A069B8B101208B490860FFF7E0F80E
:10273000054606E0FFF7DCF8401B022801D903201C
:102740000EE78348406A00F002000028F2D0012022
:1027500001F058F913E000207F490860FFF7C8F83E
:10276000054606E0FFF7C4F8401B022801D9032004
:10277000F6E67748406A00F002000028F2D120789F
:1027800000F00400042873D100277148C06900F0EC
:10279000805070B900BF6E48C06940F080506C49ED
:1027A000C8610846C06900F08050009000BF00BFBB
:1027B00001276A48006800F48070B0B96748006873
:1027C00040F4807065490860FFF792F8054606E01E
:1027D000FFF78EF8401B642801D90320C0E65F484C
:1027E000006800F480700028F2D000BFE068012883
:1027F00006D15748006A40F001005549086227E0B9
:10280000E06858B95248006A20F001005049086257
:102810000846006A20F00400086219E0E068052814
:102820000BD14B48006A40F0040049490862084651
:10283000006A40F0010008620AE04548006A20F0A2
:102840000100434908620846006A20F0040008625B
:1028500000BFE068A0B1FFF74BF8054609E0FFF7BD
:1028600047F8401B41F28831884202D9032077E6BD
:1028700022E03748006A00F002000028EFD012E0A2
:10288000FFF736F8054608E0FFF732F8401B41F243
:102890008831884201D9032062E62D48006A00F0A1
:1028A00002000028F0D1012F05D12948C06920F08D
:1028B00080502749C86100BFE069C8B32448406818
:1028C00000F00C00082860D0E069022848D1002000
:1028D00020490866FFF70CF8054606E0FFF708F800
:1028E000401B022801D903203AE61948006800F08D
:1028F00000700028F2D1206AB0F5803F07D114485B
:10290000406820F40030A168084311494860D4E9C8
:10291000080108430E49496821F4741108430C4921
:10292000486001200B490866FEF7E2FF054607E014
:102930003DE0FEF7DDFF401B022801D903200FE632
:102940000348006800F000700028F2D02FE000007B
:1029500000100240000042428004424200700040E9
:10296000002014490866FEF7C3FF054606E0FEF79F
:10297000BFFF401B022801D90320F1E50E48006883
:1029800000F000700028F2D111E0E069012800D1C8
:10299000E6E50948466806F48031206A814204D1A0
:1029A00006F47011606A814201D00120D8E5002050
:1029B000D6E50000000042420010024070B5044617
:1029C0002546681EB0F1807F01D301200FE0681E0C
:1029D0004FF0E02148610F214FF0FF3001F08CF9FA
:1029E00000204FF0E021886107200861002070BDC1
:1029F00010B504460CB9012010BDA06900B100E07B
:102A000000BF94F8410028B9002084F84000204617
:102A100000F02AF8242084F841002068C06820F4DF
:102A200000502168C860204601F074F820680069F1
:102A300020F49040216808612068406920F02A0055
:102A4000216848612068C06840F400502168C8606F
:102A500000206064202084F8410084F842000020B7
:102A6000606300BFC8E7000010B586B004460020D0
:102A700002900390049005901A49206888422ED154
:102A800000BF1948806940F48040174988610846B2
:102A9000806900F48040019000BF00BF00BF08467D
:102AA000806940F0040088610846806900F00400F5
:102AB000019000BF00BF4815029002200390032040
:102AC000059002A90948FEF77DFD4FF48060029051
:102AD00000200390049002A90448FEF773FD06B09D
:102AE00010BD000000380140001002400008014005
:102AF0002DE9F84F04460E46174699464FF0000A56
:102B000094F84100202850D106B117B90120BDE842
:102B1000F88F00206064212084F84100FEF7E8FE71
:102B20008246A784E784A068B0F5805F04D120695D
:102B300010B90025B04602E035464FF000081EE00F
:102B40005346002280212046CDF8009001F060F825
:102B500020B1202084F841000320D8E745B9B8F817
:102B60000000C0F308002168486008F1020803E093
:102B70002878216848606D1CE08C401EE084E08C61
:102B80000028DDD15346002240212046CDF8009098
:102B900001F03EF820B1202084F841000320B6E780
:102BA000202084F841000020B1E70220AFE700BFF9
:102BB000FEE7014608684069C0F38020B0B16FF4B9
:102BC00080600A68506100200863202081F83D0081
:102BD000002081F83E00086C40F00400086400BF4B
:102BE000002081F83C0000BF012070470020FCE776
:102BF0002DE9F84304460D4617469846E66A082E26
:102C000004D0012E02D016F5803F06D1206800685E
:102C100040F480702168086008E0206B122805D11C
:102C20002068006840F48070216808603B460022FC
:102C30004FF001112046CDF8008000F08CF960B112
:102C40002068006800F48070B0F5807F02D14FF4F6
:102C5000007020640320BDE8F8832069B0F5804F40
:102C600004D105F0FE002168086112E005F440700F
:102C7000F02141EAE0102168086143463A460B49D9
:102C8000204600F0C7F908B10120E4E7E8B2216866
:102C9000086143463A460549891F204600F0BAF9C3
:102CA00008B10120D7E70020D5E7000008000100A7
:102CB0002DE9F84304460F4615469946DDE9088696
:102CC0002068006840F4806021680860206800681F
:102CD00040F4807021680860434600224FF00111E3
:102CE0002046009600F037F960B12068006800F4D3
:102CF0008070B0F5807F02D14FF400702064032013
:102D0000BDE8F88307F0FE002168086133464246BB
:102D10003E49204600F07EF908B10120F0E700BFEF
:102D20000020009020684069009020688069009031
:102D300000BF00BF32464146204600F02DFA50B198
:102D4000206C042805D12068006840F400702168D8
:102D500008600120D4E7B9F1010F03D1E8B221687E
:102D6000086117E0C5F30720216808613246414633
:102D7000204600F011FA50B1206C042805D12068DB
:102D8000006840F40070216808600120B8E7E8B2EC
:102D90002168086132464146204600F0FDF950B1F5
:102DA000206C042805D12068006840F40070216878
:102DB00008600120A4E72068006840F48070216862
:102DC0000860434600224FF001112046009600F0B3
:102DD000C2F858B12068006800F48070B0F5807FB8
:102DE00002D14FF400702064032089E7F8B240F06C
:102DF000010021680861334642460449204600F03C
:102E000009F908B101207BE7002079E70200010001
:102E10002DE9F8430446884615469946DDE90867DA
:102E20002068006840F48070216808603346002202
:102E30004FF001112046009700F08DF860B1206836
:102E4000006800F48070B0F5807F02D14FF400700C
:102E500020640320BDE8F88308F0FE0021680861C3
:102E60003B4632462149204600F0D4F808B1012003
:102E7000F0E700BF002000902068406900902068C3
:102E80008069009000BF00BF3A463146204600F0FE
:102E900083F950B1206C042805D12068006840F403
:102EA0000070216808600120D4E7B9F1010F03D157
:102EB000E8B22168086117E0C5F3072021680861BE
:102EC0003A463146204600F067F950B1206C04289C
:102ED00005D12068006840F4007021680860012076
:102EE000B8E7E8B2216808610020B3E702000100FA
:102EF00070B504460D46164625E02046FFF759FEFC
:102F000008B1012070BD681CE8B1FEF7F1FC801B20
:102F1000A84200D8BDB920684069C0F3800090B9CC
:102F200000202063202084F83D00002084F83E002B
:102F3000206C40F02000206400BF002084F83C009A
:102F400000BF0120DEE720684069C0F38000002850
:102F5000D3D00020D6E72DE9F04104460D461746B0
:102F60001E46DDF8188038E0701CA8B3FEF7C0FCE0
:102F7000A0EB0800B04200D876BBC5F3074001289B
:102F80000AD120684069A9B20840A9B2884201D19B
:102F900001200BE0002009E020688069A9B2084008
:102FA000A9B2884201D1012000E00020B84214D12A
:102FB00000202063202084F83D00002084F83E009B
:102FC000206C40F02000206400BF002084F83C000A
:102FD00000BF0120BDE8F081FFE7C5F307400128ED
:102FE0000AD120684069A9B20840A9B2884201D13B
:102FF00001200BE0002009E020688069A9B20840A8
:10300000A9B2884201D1012000E00020B842ABD033
:103010000020DFE72DE9F04104460D4616461F4625
:1030200058E020684069C0F38020E8B1206800685B
:1030300040F40070216808606FF480602168486186
:1030400000202063202084F83D00002084F83E000A
:10305000206C40F00400206400BF002084F83C0095
:1030600000BF0120BDE8F081701C90B3FEF740FC6A
:10307000C01BB04200D866BBC5F3074001280AD187
:1030800020684069A9B20840A9B2884201D1012054
:103090000BE0002009E020688069A9B20840A9B2CD
:1030A000884201D1012000E0002090B90020206377
:1030B000202084F83D00002084F83E00206C40F081
:1030C0002000206400BF002084F83C0000BF0120E5
:1030D000C8E7FFE7C5F3074001280AD12068406927
:1030E000A9B20840A9B2884201D101200BE000201A
:1030F00009E020688069A9B20840A9B2884201D1DC
:10310000012000E0002000288BD00020AAE770B545
:1031100004460D46164637E020684069C0F30010AB
:10312000A0B16FF0100021684861002020632020CA
:1031300084F83D00002084F83E00206C206400BF2D
:10314000002084F83C0000BF012070BDFEF7D0FBDA
:10315000801BA84200D8BDB920684069C0F3801028
:1031600090B900202063202084F83D00002084F8DE
:103170003E00206C40F02000206400BF002084F856
:103180003C0000BF0120E0E720684069C0F38010E8
:103190000028C1D00020D8E770B504460D46164679
:1031A00025E02046FFF705FD08B1012070BD681C31
:1031B000E8B1FEF79DFB801BA84200D8BDB920688E
:1031C0004069C0F3C01090B900202063202084F82B
:1031D0003D00002084F83E00206C40F02000206478
:1031E00000BF002084F83C0000BF0120DEE720681B
:1031F0004069C0F3C0100028D3D00020D6E70000FB
:1032000070B500240CE0002506E00020074901EB22
:10321000C5010855681CC5B2802DF6DB601CC4B220
:10322000082CF0DB00F0B8F870BD0000842E002000
:10323000F0B514460B46CF1701EB5777C7F3C7021B
:10324000CF1701EB5777FF10A1EBC707FEB20123A1
:10325000B340DDB24CB1134B03EBC0039B5C2B437B
:10326000104F07EBC007BB541AE00E4B03EBC00333
:103270009B5CDB430B4F07EBC007BB54094B03EBD5
:10328000C0039B5C2B43074F07EBC007BB54054BA8
:1032900003EBC0039B5CDB43024F07EBC007BB544F
:1032A000F0BD0000842E002010B54FF44870FEF7EA
:1032B00075F90021AE2000F0B9F90021084600F0B0
:1032C000B5F90021102000F0B1F90021402000F0F4
:1032D000ADF90021812000F0A9F90021CF2000F0F4
:1032E000A5F90021A12000F0A1F90021C82000F0DB
:1032F0009DF90021A62000F099F90021A82000F0F6
:1033000095F900213F2000F091F90021D32000F031
:103310008DF90021084600F089F90021D52000F040
:1033200085F90021802000F081F90021D92000F0EA
:103330007DF90021F12000F079F90021DA2000F078
:1033400075F90021122000F071F90021DB2000F056
:103350006DF90021402000F069F90021202000F0E3
:1033600065F90021022000F061F900218D2000F0B4
:103370005DF90021142000F059F90021A42000F08B
:1033800055F90021A62000F051F9FFF739FF00217F
:10339000AF2000F04BF910BD70B500241CE004F123
:1033A000B001C8B2002100F041F90021084600F048
:1033B0003DF90021102000F039F9002508E0084906
:1033C00001EBC501085D012100F030F9681CC5B2B0
:1033D000802DF4DB601CC4B2082CE0DB70BD000063
:1033E000842E00202DE9FE4F0746884692461C4653
:1033F0000197CDF80080082C02D14FF006091FE09C
:103400002046E31704EB5373DB1021464FEAE47CBC
:1034100004EB5C7C4FEAEC0CA4EBCC0CBCF1000F91
:1034200002D04FF0010C01E04FF0000C6344224643
:1034300004EBD27C4FEA6C0C03FB0CF303F0FF09A6
:10344000AAF12000C6B200255EE0082C07D106EBE9
:1034500046002F4901EB400010F805B01DE00C2C90
:1034600007D106EB46002B4901EB800010F805B0B0
:1034700013E0102C05D1284800EB061010F805B019
:103480000BE0182C07D106EBC600244901EB8000A5
:1034900010F805B001E0BDE8FE8F002002901CE0AE
:1034A0000BF0010028B1414638460C9AFFF7C0FEE8
:1034B00009E00C9808B9012000E0002002464146CE
:1034C0003846FFF7B5FE4FEA6B0B08F1010000F03C
:1034D000FF080298401CC0B2029002980828DFDB67
:1034E000781CC7B2082C0BD004EBD4714A10019998
:1034F000791A8A4204D1019F00980830C0B2009026
:10350000DDF80080681CC5B24D459EDB00BFC2E7F8
:1035100096520008BE54000832590008225F000885
:103520002DE9FC4F05460F4690461C46A946BA4673
:103530002046E21704EB5272D2102146E31704EB47
:103540005373DB10A4EBC3030BB1012300E0002392
:103550001A4462431FFA82FB00263AE0102C05D180
:103560001E4800EB4810805D009001E0BDE8FC8F34
:10357000002001901CE0009800F0010028B13946BD
:1035800028460B9AFFF754FE09E00B9808B9012072
:1035900000E00020024639462846FFF749FE009821
:1035A00040100090781CC7B20198401CC0B2019036
:1035B00001980828DFDB681CC5B2A5EB0900A04212
:1035C00004D14D460AF1080000F0FF0A5746701C6E
:1035D00086B25E45C2DB00BFC8E700007E6C000813
:1035E0002DE9F84106460F4614461D46DDF81C80BD
:1035F00013E0CDF8008022782B4639463046FFF79D
:10360000F1FE082D02D1B01DC6B205E0284605EB3B
:10361000D07106EB6101CEB2641C2078202802DB59
:1036200020787E28E5DDBDE8F88100007CB5044601
:103630000D460DB9002000E040208DF804008DF803
:1036400005406420022301AA782100900148FEF77A
:103650003DFA7CBD0C05002010B500F0DBF84FF4FE
:103660009670FDF79BFF00F0FBF82F2108A0FCF7F8
:10367000C9FD28B12F2106A0FCF7C4FD401C00E0C5
:1036800003A004462522214608A000F009FB10BD36
:103690002E2E5C496E745C42513736395C496E742B
:1036A0005F42513736392E63000000005B25733AC4
:1036B00025645D4251373639205374617274205548
:1036C000702E2E2E0D0A00002DE9FE4F07468A4669
:1036D0001646700001F03CFA054601F0FBFA4FF483
:1036E0007A714FF6FF7000EA460001233A46CDE9B1
:1036F0000050029110212E48FEF7A0FA01F0FCFACA
:10370000002004464FE0002C26D12AA00068029039
:1037100028788DF80900022102A800F075FF804684
:103720006878404517D02F2123A0FCF76BFD28B106
:103730002F2121A0FCF766FD401C00E01EA0814661
:103740004722494623A000F0ABFA284601F0E4FAEC
:103750000020BDE8FE8F23E005EB4400012100F0CE
:1037600053FF8046012000EB4400285C404516D002
:103770002F2111A0FCF746FD28B12F210EA0FCF748
:1037800041FD401C00E00CA081465322494619A08F
:1037900000F086FA284601F0BFFA0020D9E700BF02
:1037A000601CC0B20446B442ADDB00BFD1E70000EC
:1037B0000C050020110000002E2E5C496E745C4246
:1037C000513736395C496E745F42513736392E6352
:1037D000000000005B25733A25645D52656164203A
:1037E0004461746120435243204552524F5221217B
:1037F0000D0A00005B25733A25645D526561642003
:103800004461746120435243204552524F52210D6E
:103810000A00000010B51148007920F002000F499D
:1038200008710846007920F00100401C0871084624
:103830000179042000F026F80848007920F0020001
:10384000801C064908710846007920F001000871C3
:1038500008460179042000F015F810BD84320020DC
:1038600010B500224FF400410548FEF73BF8022056
:10387000FDF794FE0122D1030148FEF733F810BD95
:103880000008014070B586B004460D4611A00068DE
:103890000590E0B28DF815008DF81650032105A8AB
:1038A00000F0B2FE06468DF810508DF8116001F060
:1038B00011FA4FF47A70022104AA0123CDE9002104
:1038C0000290224610210448FEF772FB01F014FA20
:1038D00006B070BD100000000C05002000B585B0DA
:1038E0000020019002900390049000BF244880695A
:1038F00040F01000224988610846806900F01000FD
:10390000009000BF00BF00BF0846806940F0200063
:1039100088610846806900F02000009000BF00BF69
:1039200000BF0846806940F0080088610846806949
:1039300000F00800009000BF00BF00BF084680698B
:1039400040F0040088610846806900F0040000909F
:1039500000BF00BF00224FF400410A48FDF7C2FF3C
:103960004FF40040019001200290002003900220BB
:10397000049001A90348FDF725FE05B000BD000035
:10398000001002400008014010B50B480B490860C8
:103990000B484860002109488160C1604FF48041B4
:1039A0000161002141618161C1610162FDF7A6FFF2
:1039B00008B1FDF7F0FD10BD005800400C050020D7
:1039C000A086010010B50B480B4908604FF4E130A8
:1039D0004860002108488160C16001610C2141619B
:1039E00000218161C161FFF703F808B1FDF7D3FD44
:1039F00010BD0000003801406005002000BFFEE758
:103A000000BFFEE708B508490968C9084FF47A7293
:103A1000B1FBF2F14143009100BF00BF00994A1E83
:103A200000920029F9D108BD0C00002010B5FEF766
:103A3000ADFB01F093FA012801D001F041FA10BD6D
:103A400000B58FB0282105A8FCF7D1FB14216846EA
:103A5000FCF7CDFB012005900004069000200790A4
:103A60000120099002200C90C1030D914FF4E01148
:103A70000E9105A8FEF770FD08B1FDF78CFD0F2033
:103A8000009002200190002002904FF4806003908B
:103A90000020049002216846FEF73AFC08B1FDF7C9
:103AA0007AFD0FB000BD704700BF00BF02680C3246
:103AB00052E8002F22F4907102680C3242E80013A1
:103AC000002BF3D100BF00BF00BF0268143252E8E0
:103AD000002F22F001010268143242E80013002B8B
:103AE000F3D100BF016B01290ED100BF00BF0268F6
:103AF0000C3252E8002F22F0100102680C3242E82A
:103B00000013002BF3D100BF202180F842100021C8
:103B10000163704770B504462168096921F440517A
:103B2000E2681143226811612269A1681143626948
:103B300041EA02052168C96841F20C6291432943B8
:103B40002268D1602168496921F44071A26911435A
:103B5000226851612D4A2168914202D1FEF7B4FCDE
:103B600001E0FEF7A1FC00EBC00101EB001162686F
:103B70009200B1FBF2F100EBC00202EB00126368AD
:103B80009B00B2FBF3F26423B2FBF3F202EBC2033D
:103B900003EB0212A1EB8201322202EB011164223B
:103BA000B1FBF2F101F0F00100EBC00202EB0012F8
:103BB00063689B00B2FBF3F26423B2FBF3F201EB08
:103BC000021200EBC00101EB001163689B00B1FB26
:103BD000F3F100EBC00303EB00136668B600B3FB20
:103BE000F6F36426B3FBF6F303EBC30606EB03130D
:103BF000A1EB8301322303EB01116423B1FBF3F149
:103C000001F00F0111442268916070BD003801403D
:103C10002DE9F84304460D4617469846089E31E0C4
:103C2000701C70B3FDF764FEA0EB0800B04200D832
:103C300016B90320BDE8F8832068C06800F00400CE
:103C4000F8B1802D1ED0402D1CD020680068C0F334
:103C5000C000B0B100BF0020009020680068009054
:103C600020684068009000BF00BF2046FFF71CFF9F
:103C70000820606400BF002084F8400000BF0120DD
:103C8000D8E7FFE7206800682840A84201D101205A
:103C900000E00020B842C3D00020CBE700BFFEE721
:103CA0000FB4054B10B503A9044A029800F00AF9B5
:103CB00010BC5DF814FB0000414600080805002018
:103CC0000FB4084B10B504A902AA039800F0FAF843
:103CD000044602A9002000F078FC204610BC5DF8E4
:103CE00014FB0000CB45000802480068C0F3022026
:103CF000704700000CED00E010B5002804DB0A0757
:103D0000130E054A135406E00A07140E034A00F086
:103D10000F031B1FD45410BD00E400E018ED00E0B9
:103D200002E008C8121F08C1002AFAD17047704784
:103D3000002001E001C1121F002AFBD170470000E2
:103D40002DE9FF5F82B00021DDE90430020DDDF8CE
:103D500040B0034318D044F61050A2F2FF32424361
:103D60001514119801281FD0A5EB0B00401C5FEA29
:103D7000000A4FF000064E4FDFF83891B04650462B
:103D800015D5CAF1000413E0119801244AA30128B3
:103D900001D16FEA0B010298119AC0E90031C0E924
:103DA000024206B0BDE8F09FCBF10000DFE7044619
:103DB0000021404A491842EB0450CDE9001012E0BE
:103DC000E00707D032463B4640464946FCF794FBA5
:103DD0008046894632463B4610461946FCF78CFB26
:103DE00006460F466410002CEAD1DDE90401DDE946
:103DF0000023BAF1000F06DAFCF77EFB42464B4681
:103E0000FCF77AFB05E0FCF7E9FB42464B46FCF782
:103E1000E5FB04460E460022284BFCF7BFFC03D806
:103E20004FF0FF30014607E00022254B2046314687
:103E3000FCF7BBFAFCF7F6FD102409E0002C0ADBC6
:103E40000A220023FCF708FD039B30321A55641E3A
:103E500050EA0102F2D1641C039AC4F11103144424
:103E6000119A012A03D0012208430DD10AE0084328
:103E700004D000204FF0110B119072E7A3EB0B055B
:103E80006D1E0DE05B4504DD4FF0000205F10105FC
:103E900004E003DA4FF00002A5F10105002AECD09E
:103EA00002981199C0E90231C0E9004579E70000A4
:103EB000000014400000F03F300000000000F0431C
:103EC0000000E03F2DE9FF4F95B09A468846064630
:103ED0000025EEE1252877D100242746F94A012163
:103EE000039400E0044316F8013F203B01FA03F07D
:103EF0001042F7D130782A2811D06FF02F03307894
:103F0000A0F13002092A16D8039A44F0020402EB09
:103F1000820203EB42021044761C0390EFE758F84C
:103F2000042B0392002A03DA504244F40054039015
:103F300044F00204761C30782E2816D116F8010FB2
:103F400044F004042A280DD06FF02F023078A0F13D
:103F50003003092B09D807EB870302EB4303C7188B
:103F6000761CF3E758F8047B761C30786C280FD069
:103F700006DC4C2817D068280DD06A2814D104E03C
:103F8000742810D07A280FD10DE044F400140AE010
:103F900044F4801401E044F440147278824202D167
:103FA00004F58014761C761C307866280BD013DC60
:103FB000582877D009DC002875D04528F6D0462847
:103FC000F4D047281AD193E118E0632835D064284B
:103FD00079D0652812D18BE1702873D008DC67286E
:103FE000F1D069286FD06E280DD06F2806D1ACE0D3
:103FF00073282CD0752874D0782853D0524617993E
:1040000090476D1C54E1C4F30250022809D00328E4
:104010000DD0D8F8001004280DD00D6008F1040868
:1040200046E1D8F80010EA17C1E90052F6E7D8F8DF
:1040300000100D80F2E70D70F0E718F8041B8DF802
:10404000001000208DF80100EB46012003E058F835
:1040500004BB4FF0FF3061074FF0000102D40DE0C8
:1040600009F101018946B9420FDA8145F8DB1BF8F5
:1040700009100029F4D108E009F1010189468142C3
:10408000FADB1BF809100029F6D103985346A0EB80
:10409000090721463846179A00F080FA284400EBB9
:1040A000090507E044E008E10DE01BF8010B52466A
:1040B00017999047B9F10109F7D25346214638467E
:1040C000179AF2E039E00A21C4F302524FF0000BD4
:1040D0000091022A06D058F8040BC117032A09D010
:1040E0000AE023E008F1070020F00702F2E80201ED
:1040F000904605E000B2C117042A01D140B2C117B1
:10410000002906DA0A460021404261EB02012D2215
:1041100002E0220504D52B228DF80420012203E0C1
:10412000E20701D02022F7E7914657E00A2100E09C
:1041300010214FF0000B00910BE010214FF0000B0D
:1041400044F004040827009103E008204FF0000B1E
:104150000090C4F30252022A05D058F8040B002143
:10416000032A08D008E008F1070020F00702F2E86F
:104170000201904603E080B2042A00D1C0B24FF0A1
:10418000000922072AD53278702A07D0DDF800C04E
:104190008CF0100C5CEA0B0C05D00EE040228DF880
:1041A0000420012208E050EA010306D030238DF8F4
:1041B00004308DF8052002229146009B83F008030D
:1041C00053EA0B030AD150EA010201D1620705D577
:1041D00030228DF804204FF001097F1E3278582AD2
:1041E00004D039A20C920CAA02920BE03BA2F9E790
:1041F0005B46009AFCF730FB0C9B9B5C029A521EBC
:104200000292137050EA0102F2D1029804A9081A2E
:1042100000F1200B600702D524F4803400E0012770
:104220005F4502DDA7EB0B0000E0002000EB0B0177
:10423000009003984944401A0390E00306D4534683
:104240002146179A039800F0A9F90544002706E0D3
:1042500001A85246C05D179990476D1C7F1C4F45C1
:10426000F6DBE0030CD553462146179A039800F07D
:1042700095F9054404E030205246179990476D1C8B
:104280000099481E00900029F5DC08E00298029988
:1042900052460078491C0291179990476D1CBBF15A
:1042A0000001ABF1010BF1DC5BE100F065F90544C5
:1042B000761C307800287FF40DAE19B02846BDE892
:1042C000F08F0000092801003031323334353637A1
:1042D0003839616263646566000000003031323352
:1042E00034353637383941424344454600000000F2
:1042F000600700D4062708F1070020F00700F0E867
:104300000223804603F0004C5FEA0C0001D097A026
:1043100009E0200501D596A005E0E00701D095A0B1
:1043200001E0AFF24C001390307823F00043652891
:104330000CD006DC452809D046281DD047287FD15F
:104340003BE0662818D067287AD136E00021112F8B
:1043500001DB112000E0781CCDE9000104A90CA8C4
:10436000FFF7EEFCDDE90D010C9A4FF0000B07F1B1
:104370000109109200914EE04FF000400097CDE906
:10438000011004A90CA8FFF7DBFCDDE90D020C9B72
:104390000F994FF0000B91461093009211B9791CC0
:1043A00000EB0109B7EB090003D4C0F1FF3B07F1B3
:1043B0000109A9EB0700019042E0012F00DA012773
:1043C0000021112F01DD112000E03846CDE9000168
:1043D00004A90CA8FFF7B4FCDDE90D010C9A0091CB
:1043E0004FF0000BB946109221070FD4009A4A45AE
:1043F00003DA914601E0A9F10109B9F1010F05DDE8
:10440000109AA9F10101515C3029F4D0B84202DAC6
:1044100010F1040F03DA0121CDE9011010E00028AA
:1044200003DC8344A9EB000102E0411C494500DDA7
:104430008946A0EB0B00401C01904FF00040029019
:10444000200705D40198484502DB4FF0FF3001906A
:1044500000208DF84B0002980DF14B07B0F1004F92
:1044600025D002200C902B200D90029800280CDA09
:10447000404202902D200D9007E00A210298FCF79F
:10448000D5F93031029007F8011D0C99481E0C90A7
:104490000029F2DC02980028EFD1791E0D980870EF
:1044A000307800F0200040F0450007F8020D11A818
:1044B000C01BC01D02901398007800B1012000EBD2
:1044C0000901019801EBE071029801440398401A38
:1044D000401E0390E00306D453462146179A0398E2
:1044E00000F05CF805441398007818B1524617990B
:1044F00090476D1CE00323D553462146179A039835
:1045000000F04CF805441BE0BBF1000F07DB0098FE
:10451000584504DD1098179910F80B0001E0179921
:1045200030205246904701980BF1010B401E05F1D7
:104530000105019004D12E205246179990476D1C19
:10454000B9F10001A9F10109DEDC05E017F8010B62
:104550005246179990476D1C0299481E02900029F7
:10456000F4DC53462146179A03989EE62D0000007E
:104570002B000000200000002DE9F041044600253A
:104580001E461746880404D405E039462020B0476B
:104590006D1C641EF9D52846BDE8F0812DE9F04177
:1045A000044600251E469046C80301D5302700E08A
:1045B0002027880404D505E041463846B0476D1CE5
:1045C000641EF9D52846BDE8F0810A68531C0B60CB
:1045D0001070704705E0FCF76DFA4FF4967000F02C
:1045E000CDFBF8E7FCF7E6FC0DE0FCF771FCFCF70F
:1045F00003FCFCF731FBFCF733FFFCF79FFD4FF4A6
:10460000FA7000F0BBFBF0E730B502460B46002025
:10461000002112E0545C604000240AE000F08005B4
:1046200025B1072585EA4005E8B201E04506280ED8
:10463000641C082CF2DBC0B2491C9942EAD330BD9D
:1046400013B50C464FF47A73012269460248FEF70F
:104650004FFA00981CBD00006005002070B50446AC
:10466000049D188815E054F82060964209DC461C29
:1046700054F82660964204DD188054F820602E60BD
:1046800070BD2E68964202DA461CB0B201E0461EAA
:10469000B0B2002801DD8842E5DB00BFF0E7000092
:1046A000FDF780FDFFF7CCF9FFF718F9FFF78AF95E
:1046B000FFF76AF92F210AA0FBF7A4FD28B12F21EB
:1046C00007A0FBF79FFD401C00E005A00446602208
:1046D000214608A0FFF7E4FAFCF788FE00BFFEE7DA
:1046E0002E2E2F436F72652F5372632F6D61696E8B
:1046F0002E6300005B25733A25645D424D532053C1
:10470000544152540D0A0000FCF7E8FD08E000F0A7
:10471000E1FAFCF753FE00F0EFFA322000F02EFB36
:10472000F5E700002DE9F04105460E4626480768EA
:1047300026480068001D00F08FFA50B92348006831
:1047400090F82C10012088402149096881432048B5
:104750000160681CD8B9D6B11E4948681B49096870
:1047600088601A4982680968CA6018490968091D81
:104770008268516015490968091D8160154A13490D
:1047800009684A6111460968491C11601AE07C19E0
:104790000E4800684460BC4207D20C480168091DFD
:1047A0000D48006800F07CFA0CE008480168091D1B
:1047B0000A48006800F074FA09480068844201D28F
:1047C00007480460BDE8F0819C04002088040020B4
:1047D000A00400205C060020900400208C0400202F
:1047E000B804002010B5044600F074FA2F480068A1
:1047F000401C2E4908602E48006840B92C480460CF
:104800000846006801280DD100F016F90AE0294891
:10481000006838B926480068C06AE16A884201D851
:104820002348046024480068401C2349086094F829
:104830002C10012088402149096808431F4908605D
:10484000E16A01EB81011E4A02EB81014868A06028
:104850008268E260211D826851608160E16A01EB3B
:104860008101174A02EB81026261E16A01EB810179
:10487000134A52F82110491CE26A02EB8202104BE3
:1048800043F8221000F038FA0A48006868B1084876
:104890000068C06AE16A884207D24FF08050094937
:1048A0000860BFF34F8FBFF36F8F10BD98040020D7
:1048B00088040020A4040020B4040020A0040020E8
:1048C000A805002004ED00E010B516E000F002FAA3
:1048D0000C48C068C468201D00F0BEF90A48006892
:1048E000401E0949086009480068401E07490860E1
:1048F00000F002FA204600F00BF804480068002897
:10490000E4D110BD48060020980400209404002043
:1049100010B50446206B00F0FFF9204600F0FCF9CA
:1049200010BD000030B54FF42053154800F00704C7
:104930002CB1C01D20F00700114C041B1B1B0246AC
:10494000104C226000240F4D6C60D018083820F005
:1049500007000D4C206000240B4D2D686C600A4D43
:104960002D682C601146441A4C60074C24680C607A
:10497000064D4C682C60064D4C682C6030BD000024
:1049800070060020CC040020D4040020DC040020A9
:10499000D804002000BFFFF797FF064800680128F1
:1049A000F9D94FF0805004490860BFF34F8FBFF32F
:1049B0006F8FF0E7A805002004ED00E02DE9FF5F10
:1049C00080460E469146DDE90E7A109CA9F1010061
:1049D000216B01EB800B2BF0070B7EB1002507E06C
:1049E000715D04F134004155705D00B902E06D1C49
:1049F000102DF5D300BF002143200155052F00D312
:104A00000427E762201D00F048F904F1180000F0C7
:104A100044F92461C7F10500A0616462414658462B
:104A2000039A00F007F92060BAF1000F01D0CAF82C
:104A30000040BDE8FF9F000010B5002407E004EB34
:104A400084010F4A02EB810000F01AF9641C052C66
:104A5000F5D30C4800F014F90B4800F011F90B489D
:104A600000F00EF90A4800F00BF90A4800F008F9C6
:104A700004480949086004480849086010BD00005E
:104A8000A80500200C060020200600203406002087
:104A9000480600205C0600208C04002090040020C2
:104AA00010B50146164800E0006803688B42FBD34E
:104AB0000246436813448B4204D143684C68234444
:104AC000436001460A464B6813440468A34211D16F
:104AD0000C4C03682468A34208D04B6804686468DF
:104AE00023444B6003681B680B6005E0054B1B68A3
:104AF0000B6001E003680B60884200D0016010BDCC
:104B0000CC040020D404002009480068006808B9DB
:104B1000012000E0002020B14FF0FF30054908607F
:104B200005E003480068C0680068024908607047F3
:104B30008C040020B804002000BFBF2080F311883F
:104B4000BFF34F8FBFF36F8F00BF00BFFEE70000C2
:104B50002DE9F04705464FF0000900F05FF93048B5
:104B6000006808B9FFF7DEFE75B105F00700C0F177
:104B70001008C8F1FF30A84201D2012000E0002057
:104B800008B9454400E00025012000EBE57000284D
:104B900041D0002D3FD02348006885423BD8224EAB
:104BA0003046046801E0264624686068A84202D2C4
:104BB00020680028F7D11A48006884422BD030685A
:104BC00000F10809206830606068401B102807D990
:104BD00067196068401B786065603846FFF760FFC2
:104BE000104960680968081A0E490860084600689C
:104BF0000E490968884203D20A4800680B490860D8
:104C0000606840F000406060002020600848006854
:104C1000401C0749086000F079FA4846BDE8F08773
:104C2000D4040020D8040020CC040020DC040020A0
:104C3000E0040020001F4FF080730360001F21F08C
:104C400001030360001F034B036014380260203827
:104C500070470000394B000801460A69D1E901306C
:104C60009860D1E9010358605068884201D1886892
:104C70005060002008611068401E10601068704786
:104C800000F1080141604FF0FF31816000F108013F
:104C9000C16001610021016070470021016170471E
:104CA00010B502460B685C1C0CB9106907E002F1F4
:104CB000080000E04068446824689C42FAD94468CF
:104CC0004C604C68A160886041600A611468641C93
:104CD000146010BD00BFBF2080F31188BFF34F8F59
:104CE000BFF36F8F00BF03480068401C0149086094
:104CF00070470000C804002006480068401E0549AF
:104D000008600846006820B9002080F3118800BFC1
:104D100000BF7047C804002070B506463546E6B1AE
:104D2000083D2C466068C00FB8B12068A8B960681B
:104D300020F00040606000F071F808496068096880
:104D40000844064908602046FFF7AAFE04480068A8
:104D5000401C0349086000F0D9F970BDD804002058
:104D6000E404002000204FF0E0210861886102483F
:104D700048610720086170473F19010070B504467B
:104D8000002544B100F04AF800212046FFF7CAFC94
:104D900000F0BCF905463DB94FF08050034908606A
:104DA000BFF34F8FBFF36F8F70BD000004ED00E0C5
:104DB0001CB5124800210B468022CDE9001010A13D
:104DC000114800F097F80446012C14D100BFBF2011
:104DD00080F31188BFF34F8FBFF36F8F00BF4FF089
:104DE000FF300A490860012009490860002009498C
:104DF000086000F04BF8084800681CBDBC040020A7
:104E000049444C450000000095490008B8040020C2
:104E1000A40400209C040020C00400200248006874
:104E2000401C014908607047C40400201248006813
:104E300018B10120114908601DE000200F490860E9
:104E40000F480068B0FA80F0C0F11F0101EB810249
:104E50000C4B03EB820042685268426000F108028A
:104E60004368934202D14268526842604268D26805
:104E7000054B1A6000BF7047C4040020AC0400203A
:104E8000A0040020A80500208804002010B50A48CE
:104E9000006840F47F00084908600846006840F058
:104EA0007F400860FFF75EFF002004490860FBF7C1
:104EB0003BF9002010BD000020ED00E0C8040020F8
:104EC00010B500BFBF2080F31188BFF34F8FBFF331
:104ED0006F8F00BF00F052F818B14FF080500449B6
:104EE000086000BF002080F3118800BF10BD0000E3
:104EF00004ED00E02DE9FF4F85B080468946174656
:104F0000DDE912ABB800FFF723FE064676B14C2070
:104F1000FFF71EFE04462CB14C212046FBF767F933
:104F2000266304E03046FFF7F7FE00E000247CB182
:104F30000020CDE900ABCDE902403A464946404663
:104F4000089BFFF73BFD2046FFF74CFC012501E0E5
:104F50004FF0FF35284609B0BDE8F08F05490968D4
:104F600009B9012005E00449096809B9022000E0F7
:104F700000207047A4040020C40400202DE9F04163
:104F800000275748006800287ED156480068451C15
:104F9000544805608DB95448D0F8008053480068E3
:104FA000514908605148C0F8008051480068401CD1
:104FB0004F490860FFF7A8FD00BF4E4800688542D2
:104FC00076D300BF48480068006808B9012000E0B7
:104FD000002020B14FF0FF304649086067E04248AA
:104FE0000068C068C4686668B54202D2414806607D
:104FF0005DE06069D4E902128A60D4E902214A6066
:10500000211D42688A4201D1E1684160002262614B
:105010000168491E0160A06A98B1A06AD4E907122C
:105020008A60D4E907214A6004F1180142688A4283
:1050300001D1216A41600022A2620168491E01601B
:1050400000BF94F82C10012088402B4909680843C0
:1050500029490860E16A01EB8101284A02EB8101DC
:105060004868A0608268E260211D826851608160AA
:10507000E16A01EB8101214A02EB81026261E16A8E
:1050800001EB81011D4A00E022E052F82110491C89
:10509000E26A02EB8202194B43F822101849E06AD7
:1050A0000968C96A88428DD901278BE700E000BFF3
:1050B00013480068C06A00EB8000104951F82000D6
:1050C000012800D901270F48006800B1012704E03A
:1050D0000D480068401C0C4908603846BDE8F08166
:1050E000C40400209C0400208C04002090040020B4
:1050F000B0040020B8040020A0040020A80500206F
:1051000088040020AC040020A804002070B500240E
:105110000026FFF7DFFD4B480068401E4949086044
:105120000846006800287DD147480068002879D0EB
:105130005BE04648C068C468A06AD4E907128A6088
:10514000D4E907214A6004F1180142688A4201D17A
:10515000216A41600022A2620168491E0160606903
:10516000D4E902128A60D4E902214A60211D426812
:105170008A4201D1E1684160002262610168491EF2
:10518000016094F82C1001208840314909680843D7
:105190002F490860E16A01EB81012E4A02EB81018F
:1051A0004868A0608268E260211D82685160816069
:1051B000E16A01EB8101274A02EB81026261E16A47
:1051C00001EB8101234A52F82110491CE26A02EBEB
:1051D0008202204B43F822101F49E06A0968C96A1D
:1051E000884202D301201D4908601848006808B9A8
:1051F000012000E0002000289BD00CB1FFF784FCC8
:105200001748056865B100BFFFF7B8FE10B101206F
:10521000124908606D1E002DF6D10020104908606B
:105220000E4800E009E0006838B1012630070D495A
:105230000860BFF34F8FBFF36F8FFFF75DFD304600
:1052400070BD0000C4040020980400203406002033
:10525000A0040020A805002088040020AC04002041
:10526000A804002004ED00E0020304050607080975
:105270000A0B0C0D0E0F10100102000000000000C0
:1052800000000102030406070809000000000102F3
:105290000304000002000000000000000000002FD6
:1052A000000000000700070000147F147F14002492
:1052B0002A7F2A12006264081323003649552250BF
:1052C00000000503000000001C22410000004122F4
:1052D0001C000014083E08140008083E08080000DE
:1052E00000A06000000808080808000060600000D6
:1052F000002010080402003E5149453E0000427F54
:105300004000004261514946002141454B3100189F
:1053100014127F10002745454539003C4A49493061
:10532000000171090503003649494936000649491B
:10533000291E000036360000000056360000000826
:105340001422410000141414141400004122140803
:1053500000020151090600324959513E007C1211E8
:10536000127C007F49494936003E41414122007F7D
:105370004141221C007F49494941007F0909090137
:10538000003E4149497A007F0808087F0000417FBC
:105390004100002040413F01007F08142241007F6E
:1053A00040404040007F020C027F007F0408107FD5
:1053B000003E4141413E007F09090906003E41513E
:1053C000215E007F091929460046494949310001FB
:1053D000017F0101003F4040403F001F2040201F4F
:1053E000003F4038403F0063140814630007087012
:1053F000080700615149454300007F4141000055C5
:105400002A552A55000041417F0000040201020490
:10541000004040404040000001020400002054547D
:105420005478007F484444380038444444200038CD
:105430004444487F00385454541800087E0901023F
:105440000018A4A4A47C007F080404780000447D14
:105450004000004080847D00007F10284400000050
:10546000417F4000007C04180478007C0804047824
:1054700000384444443800FC242424180018242410
:1054800018FC007C0804040800485454542000040C
:105490003F444020003C4040207C001C2040201C19
:1054A000003C4030403C004428102844001CA0A090
:1054B000A07C004464544C441414141414140000CC
:1054C000000000000000000000000000FC000000E0
:1054D000000002000000000C020C020000000000AE
:1054E000000090D0BCD0BC90000300030000182442
:1054F000FE448C000302070201001824D8B04C803F
:10550000000300010201C038E438E000010202019A
:105510000202080600000000000000000000000079
:1055200000F80402000000010204000204F8000078
:105530000004020100009060F8609000000001008B
:1055400000002020FC2020000000010000000000DE
:10555000000000000806000000002020202020009D
:105560000000000000000000000000000002000039
:1055700000000080601C0200040300000000F8042A
:105580000404F8000102020201000008FC0000000F
:1055900000020302000018844424180003020202DF
:1055A000020008042424D80001020202010040B0D5
:1055B00088FC80000000000302003C242424C40076
:1055C000010202020100F824242CC00001020202A0
:1055D00001000C04E41C0400000003000000D824B7
:1055E0002424D80001020202010038444444F80097
:1055F0000003020201000000100000000000020091
:105600000000000020000000000006000000002054
:1056100050880402000000000102909090909000D9
:105620000000000000000002048850200002010079
:1056300000001804C4241800000002000000F80450
:10564000E494F80001020202020000E09CF08000F5
:1056500002030000030204FC2424D8000203020217
:105660000100F80404040C0001020202010004FC21
:105670000404F80002030202010004FC24740C007C
:1056800002030202030004FC24740C000203020063
:105690000000F0080444CC4000010202010004FCB8
:1056A0002020FC040203000003020404FC040400A4
:1056B000020203020200000404FC040406040403C2
:1056C000000004FC24D00C0402030200030204FCCA
:1056D00004000000020302020203FC3CC03CFC0088
:1056E00003000300030004FC30C4FC0402030200B6
:1056F0000300F8040404F80001020202010004FCA3
:1057000024241800020302000000F8848404F80036
:1057100001020207050004FC246498000203020051
:105720000302182424448C000302020201000C042A
:10573000FC040C0000020302000004FC0000FC0456
:10574000000102020100047C80E01C040000030050
:1057500000001CE03CE01C00000300030000049C6F
:10576000609C0400020300030200041CE01C04000F
:105770000002030200000C84641C04000203020205
:1057800003000000FE020200000007040400000EF7
:1057900030C00000000000010200000202FE000014
:1057A00000040407000000040204000000000000E0
:1057B00000000000000000000808080808080000B9
:1057C000020000000000000000000040A0A0C00097
:1057D00000010202030204FC2020C00000030202B8
:1057E000010000C02020600000010202020000C091
:1057F0002024FC0000010202030200C0A0A0C0009F
:105800000001020202000020F82424040002030226
:1058100002000040A0A0602000070A0A0A0404FC5D
:105820002020C0000203020003020020E400000068
:10583000000203020000000020E40000080808073E
:10584000000004FC80E020200203020003020404A4
:10585000FC000000020203020200E020E020C00081
:1058600003000300030020E02020C0000203020028
:10587000030200C02020C00000010202010020E05D
:105880002020C000080F0A02010000C02020E00014
:105890000001020A0F0820E040202000020302005D
:1058A00000000060A0A0200000020202030000200F
:1058B000F820000000000102020020E00020E000CB
:1058C00000010202030220E02080602000000301AA
:1058D00000006080E08060000003000300002060A2
:1058E0008060200002030003020020E0208060208E
:1058F0000808070100000020A06020000002030249
:105900000200000020DE020000000007040000008A
:1059100000FF00000000000F00000002DE20000079
:10592000000407000000020102040402000000005D
:105930000000000000000000000000000000000067
:105940000000000000F800000000000000333000FC
:10595000000000100C06100C060000000000000003
:10596000000040C07840C0784000043F04043F0479
:105970000400007088FC08300000001820FF211E81
:105980000000F008F000E018000000211C031E21B8
:105990001E0000F00888700000001E212324192733
:1059A000211010160E000000000000000000000092
:1059B0000000000000E018040200000000071820AA
:1059C000400000020418E00000000040201807001A
:1059D0000000404080F0804040000202010F0102C0
:1059E0000200000000F0000000000101011F0101A1
:1059F0000100000000000000000080B07000000006
:105A00000000000000000000000000010101010191
:105A10000101000000000000000000303000000024
:105A200000000000000080601804006018060100FB
:105A3000000000E010080810E000000F1020201007
:105A40000F00001010F8000000000020203F202070
:105A50000000007008080888700000302824222107
:105A600030000030088888483000001820202011BD
:105A70000E000000C02010F8000000070424243F9E
:105A8000240000F808888808080000192120201147
:105A90000E0000E0108888180000000F112020116F
:105AA0000E0000380808C83808000000003F000059
:105AB00000000070880808887000001C2221212244
:105AC0001C0000E010080810E00000003122221144
:105AD0000F00000000C0C0000000000000303000D7
