:020000040800F2
:10000000503700209D01000841360008C328000831
:100010003D3600087D0D0008953C000800000000FA
:1000200000000000000000000000000005010008C2
:10003000E10D000800000000490100082538000813
:10004000B7010008B7010008B7010008B7010008B0
:10005000B7010008B7010008B7010008B7010008A0
:10006000B7010008B7010008B7010008B701000890
:10007000B7010008B7010008B7010008B701000880
:10008000B7010008B7010008B7010008B701000870
:10009000B7010008B7010008B7010008B701000860
:1000A000B7010008B7010008B7010008B701000850
:1000B000B7010008B7010008B7010008B701000840
:1000C000B7010008B7010008B7010008B701000830
:1000D000B7010008B7010008853C0008B701000817
:1000E000B7010008B7010008B7010008DFF810D019
:1000F00000F0CAFD0048004715510008AFF300802A
:1001000050370020224B19680868B0E8F00F80F3E0
:100110000988BFF36F8F4FF0000080F311884EF015
:100120000D0E70470000000006480068006880F36C
:10013000088862B661B6BFF34F8FBFF36F8F00DFE1
:1001400000BF00BF08ED00E0EFF30980BFF36F8F41
:100150000F4B1A6820E9F00F106008B54FF0BF0090
:1001600080F31188BFF34F8FBFF36F8F06F0ACFBA6
:100170004FF0000080F31188BDE808401968086856
:10018000B0E8F00F80F30988BFF36F8F704700BFAE
:1001900024000020EFF305807047000006488047E8
:1001A00006480047FEE7FEE7FEE7FEE7FEE7FEE75C
:1001B000FEE7FEE7FEE7FEE79F380008ED000008D7
:1001C000202A04DB203A21FA02F00021704721FAAC
:1001D00002F3D040C2F12002914008431946704713
:1001E000A0F14101192900D82030704740EA0103ED
:1001F0009B0703D009E008C9121F08C0042AFAD2DD
:1002000003E011F8013B00F8013B521EF9D27047A0
:10021000D2B201E000F8012B491EFBD27047002248
:10022000F6E710B513460A4604461946FFF7F0FFF5
:10023000204610BD421C10F8011B0029FBD1801A7A
:10024000704710B5002200E0521C835C8C5CA34216
:1002500001D1002BF8D1D8B2E1B2401A10BD30B5AF
:1002600005460020034600E05B1C934205D2EC5C8F
:10027000C85C201A01D1002CF6D130BD0022CBB2CF
:100280000178994200D10246401C0029F8D110465D
:10029000704700002DE9FF4F087883B09946FF288A
:1002A00005D0491C2D2804D00024002008E000209F
:1002B0000BE00124F9E700EB800003EB4000491C50
:1002C0000B78FF2BF7D104B140420023029314783E
:1002D00019461D462D2C01D02B2C04D1521C2D2C3F
:1002E00013D000240294AA461478FF2C0FD00A25BC
:1002F000A3FB057801FB05814FF0000C03FB0C11FB
:10030000521CE3194AEB0101EEE70124EAE78144BC
:1003100053EA010002D019F5C87F06DA03980021DC
:10032000C0E9001107B0BDE8F08F0025AE4E2F46A2
:10033000DFF8B882184600F067FCCDE90001B9F19A
:10034000000002DAC9F1000400E004460023A74AD5
:100350001AEB030B42EB045A12E0E00707D02A46DF
:1003600033463846414600F0ECF9074688462A46AF
:1003700033461046194600F0E4F905460E4664106F
:10038000002CEAD1DDE90001B9F1000F5A465346CD
:1003900006DA00F0CAFB3A46434600F0C6FB05E029
:1003A00000F0CFF93A46434600F0CBF9029A0AB181
:1003B00081F00041039AC2E90001B3E72DE9FF4F44
:1003C0001F468DB0D7E901464FF0FF382E20454635
:1003D0004FF000090B90B9696D1C0E988847396A77
:1003E000824688470028F6D1BAF1FF3F0AD024F4AC
:1003F000D064002E11DDBAF12B0F08D0BAF12D0F09
:100400000BD102E0404611B08DE744F48064B96935
:100410006D1C0E9888478246761E6946600501D598
:100420002D2000E02B208DF8000001F1010B0DF1D3
:10043000200809E0B9696D1C0E98884782460F981C
:1004400044F40074761E0560002E02DDBAF1300F10
:10045000F0D00B998A453ED144F0800406E00F9914
:10046000681CA9F1010944F400740860B9696D1CA5
:10047000761E0E98884782463028F0D02BE00B99E4
:100480008A4505D1200603D444F08004761E18E086
:10049000504603F0FDFD08B30DF11301761E44F440
:1004A00000748B4508D2AAF130000BF8010B20062E
:1004B00007D5A9F1010003E0200602D409F10100EB
:1004C0008146A00502D50F99681C0860B9696D1CAA
:1004D0000E9888478246002ED1DC53E0002E51DD75
:1004E000BAF1650F02D0BAF1450F4BD1A00549D53D
:1004F000B9696D1C24F44074761E0E9888478246B4
:10050000002E0CDD2B2804D0BAF12D0F07D144F4B6
:100510008074B9696D1C0E9888478246761EE00586
:1005200001D52D2100E02B2108F8011BCDF82C80EE
:1005300021E00DF12901761E44F4007488450CD2A7
:10054000AAF1300010F0FF0088F8000002D10B99EA
:10055000884509D908F1010806E0E00501D52448DD
:1005600001E042F20F708146B9696D1C0E98884710
:1005700082460F980560002E04DD504603F088FD8A
:100580000028D6D1F9690E988847FF208BF8000023
:1005900088F800000020069007904B466A4608A99C
:1005A00006A8FFF777FEA00502D46FF001002AE746
:1005B00014F0240F0AD0E00714D1DDE906123868E0
:1005C000031D3B600068C0E900120BE0DDE9060195
:1005D00000F03EFB0146E00704D13868021D3A6096
:1005E0000068016028460EE7000014400000F03F5C
:1005F000F1D8FFFF2DE9FE4F804681EA0300C00FCE
:100600000C46009021F0004123F00045B8EB0200B9
:10061000A94105D24046214690461C460B4602465B
:1006200023F00040104347D0270DC7F30A00C3F35F
:100630000A510290401A019040286BDAC3F313006C
:1006400040F4801B0098924620B10023D2EB030AAD
:1006500063EB0B0B01985946C0F14002504600F085
:1006600078F906460D4650465946019A00F080F941
:1006700010EB08006141002487EA115284EAE77315
:100680001A4340D0009A62B3019A012A4FEA0752F6
:1006900015DC001B61EB02014FF0004202EA075239
:1006A000CDE90042001C41F5801132462B4600F096
:1006B000EEF903B0BDE8F08F40462146F9E7001B94
:1006C00061EB0201001C41F5801300185B4120180A
:1006D000A2F5001747EB030140EAD570B6196D414A
:1006E00011E06D084FEA360645EAC0754FEA075239
:1006F000001B61EB0201001C41F5801149084FEA23
:1007000030000019514132462B4603B0BDE8F04F8E
:1007100000F0AEB90098012240000023D0EB0202A5
:1007200063EBE073009821464FEAE074B8EB0000F9
:1007300061EB0401E9E783F000435BE781F00041EE
:1007400058E72DE9FE4F81EA030404F0004421F04C
:10075000004100944FF0000B23F0004350EA0104E5
:100760005ED052EA03045BD0C3F30A54C1F30A55C6
:100770002C44A4F2F3340194A0FB0254C1F31301FE
:1007800041F48011C3F3130343F4801301FB0244CB
:1007900000FB034E840A970A44EA815447EA8357D0
:1007A000A4FB076802958D0A05FB07854FEA932C89
:1007B00004FB0C542705029D4FEA065847EA1637FA
:1007C000B5EB08056EEB070C870E920E47EA811712
:1007D00042EA8312A7FB0201B6EB0B0164EB0004B3
:1007E0002B0D43EA0C335E1844EB1C50DA4651469D
:1007F000E7FB0201C5F313044FEA0B3343EA14533A
:100800004FEA0432019C43EA0603A4F10C0402946B
:10081000009CCDE900B400F03AF903B0BDE8F08FD8
:1008200000200146F9E770B5C1F30A5201F0004516
:100830000024C1F3130140F2FF3341F480119A42C6
:1008400001DA002070BD40F233439A42A2F23342F3
:1008500003DC5242FFF7B4FC00E090402C43F1D09F
:10086000404270BD30B5041E71F1000404DB4FF04E
:100870000044404264EB0101141E73F1000405DBE7
:100880001C464FF00043524263EB04038B4208BF07
:10089000824230BD30B5041E71F1000404DB4FF01C
:1008A0000044404264EB0101141E73F1000405DBB7
:1008B0001C464FF00043524263EB0403994208BFC9
:1008C000904230BD30B50B46014600202022012465
:1008D00009E021FA02F59D4205D303FA02F5491B0E
:1008E00004FA02F52844151EA2F10102F1DC30BD24
:1008F0002DE9F05F0546002092469B468846064655
:10090000814640241BE02846414647462246FFF7E1
:1009100057FC53465A46C01A914110D31146184607
:10092000224600F016F82D1A67EB01084F462246C2
:100930000120002100F00DF817EB00094E41201EA8
:10094000A4F10104DFDC484631462A464346BDE8AF
:10095000F09F202A04DB203A00FA02F100207047C1
:100960009140C2F1200320FA03F3194390407047ED
:10097000202A06DBCB17203A41FA02F043EAE07363
:1009800006E041FA02F3D040C2F120029140084350
:1009900019467047426842B1016811F8013B23B122
:1009A000521EC0E90012184670470121C160881E1E
:1009B000704742685AB1C368016843B983688B4283
:1009C00005D0491E521CC0E90012002070474FF0AC
:1009D000FF3070470FB4002300B589B00CA9009117
:1009E0000B996FF00042CB601E4B06931E4B079392
:1009F0000423CDE901321D4A089202466B460020CD
:100A0000FFF7DCFC09B05DF814FB70B586B0064654
:100A10004FF0FF300091CDE90101002015460C4652
:100A200004903246694604A8FFF7D4FF02460498B2
:100A3000211825B108B1084600E020462860049836
:100A400000280DD0002A02DD0098884208D0081B3B
:100A50000094CDE901043246694604A8FFF7BAFFC5
:100A600006B070BD95090008B3090008AD0C000878
:100A700010B5141E73F1000408DA401C41F10001A6
:100A800092185B411A4301D120F0010010BD2DE9FD
:100A9000F04D92469B4611B1B1FA81F202E0B0FAF4
:100AA00080F220329046FFF754FF04460F4640EA9A
:100AB0000A0041EA0B0153465A46084313D0114637
:100AC00053EA010019D0C8F140025046FFF778FB05
:100AD00005460E46504659464246FFF73AFF084340
:100AE00005D0012004E020463946BDE8F08D002005
:100AF000054346EAE0762C4337430A986305E40A47
:100B0000A0EB08000022FD0A44EA47540A3002D54F
:100B100000200146E9E7010510196941DDE90845B2
:100B200000196941BDE8F04DA2E72DE9F04D81EAD9
:100B3000030404F0004B21F0004514464FF0000A76
:100B400023F0004150EA050220D054EA01021DD0F2
:100B5000C5F30A570246C5F31303C1F31300C1F3EB
:100B60000A5640F4801543F48013A7EB0608101BC7
:100B7000D64608F2FD3873EB050002D308F10108F0
:100B800001E092185B41B8F1000F03DA0020014642
:100B9000BDE8F08D00204FF48011064684460EE03B
:100BA000171B73EB050705D3121B63EB0503064305
:100BB0004CEA010C49084FEA300092185B4150EAB8
:100BC0000107EDD152EA030012D082EA040083EA61
:100BD0000501084305D0101BAB4106D201220023BA
:100BE00006E000224FF0004302E06FF001025310D4
:100BF0001AEB06004CEB085110EB0A0041EB0B011D
:100C0000BDE8F04DFFF734BF0EB540F2334202921B
:100C10000022CDE900221346FFF739FF03B000BDE3
:100C2000C1F30A52C1F3130140F2FF3341F48011C2
:100C30009A4202DA00200146704740F233439A425A
:100C4000A2F2334202DC5242FFF7BABAFFF781BE8A
:100C500001F0004330B421F0004150EA010206D017
:100C60000A0DA2F56072C1F31301002A02DC30BC48
:100C700000207047440F44EAC104C100E01830BCB2
:100C800000EBC25000F017B8064C074D06E0E068D4
:100C900040F0010394E8070098471034AC42F6D3C3
:100CA000FFF728FAF470000814710008C0B24FF47E
:100CB000F05100F037B80029A8BF7047401C490028
:100CC00008BF20F00100704710B4B0FA80FC00FAB1
:100CD0000CF050EA010404BF10BC704749B1CCF1DC
:100CE000200421FA04F411FA0CF118BF0121214368
:100CF0000843A3EB0C01CB1D4FEA00614FEA102023
:100D000042BF002010BC704700EBC35010440029C4
:100D1000A4BF10BC7047401C490008BF20F0010070
:100D200010BC70477F2801D9002208E0064A02EB78
:100D30005002C007127800D1120902F00F02012000
:100D40009040084070470000B47000081CB5074888
:100D5000032100234FF48062CDE9001004A106486E
:100D600005F080FF05F072FD1CBD0000840000202E
:100D70007461736B310000003165000800BFFEE74D
:100D800010B50446204600F0B1F910BD10B5044678
:100D900003E04FF47A70FFF7F3FF201EA4F1010483
:100DA000F7D110BD2DE9F04104460D46164643F239
:100DB0003907207800233A46012105F0E1FA21683D
:100DC000884202D00020BDE8F081207832462946D2
:100DD00003F062FE012801D00020F4E70120F2E7D1
:100DE000704772B600BFFEE770B504460CB901202B
:100DF00070BD94F8200010B9204600F0AFF82068CC
:100E0000006840F001002168086000F019FB054609
:100E10000DE000F015FB401B0A2808D9606A40F479
:100E200000306062052084F820000120E0E720689F
:100E3000406800F001000028EBD02068006820F036
:100E400002002168086000F0FBFA05460DE000F0A2
:100E5000F7FA401B0A2808D9606A40F40030606243
:100E6000052084F820000120C2E72068406800F0D7
:100E700002000028EBD1207E012806D120680068FE
:100E800040F080002168086005E02068006820F0DC
:100E9000800021680860607E012806D12068006813
:100EA00040F040002168086005E02068006820F0FC
:100EB000400021680860A07E012806D120680068F3
:100EC00040F020002168086005E02068006820F0FC
:100ED000200021680860E07E012806D120680068B3
:100EE00020F010002168086005E02068006840F0EC
:100EF000100021680860207F012806D12068006862
:100F000040F008002168086005E02068006820F0D3
:100F1000080021680860607F012806D12068006809
:100F200040F004002168086005E02068006820F0B7
:100F3000040021680860D4E90201084321690843DC
:100F4000616908436168491E08432168C86100203F
:100F50006062012084F82000002049E710B586B0C7
:100F60000446002002900390049005901A492068DE
:100F700088422ED100BF1948C06940F0007017495F
:100F8000C8610846C06900F00070019000BF00BF52
:100F900000BF0846806940F0040088610846806907
:100FA00000F00400019000BF00BFC81402900020B0
:100FB0000390049002A90A4800F0ACF84FF4805066
:100FC0000290022003900320059002A9044800F03B
:100FD000A1F806B010BD00000064004000100240FF
:100FE000000801400146002291F82100022808D0A3
:100FF0000420886300BF002081F8200000BF01208A
:1010000070470868006820F00E000B6818600868D8
:10101000006820F001000B68186091F84030012052
:101020009840CB6B5860012081F8210000BF002060
:1010300081F8200000BF1046E2E7000070B50446CA
:10104000002594F82100022803D00420A063012584
:1010500048E02068006820F00E00216808602068E1
:10106000006820F00100216808601F49206888425C
:1010700001D1012026E01C4914312068884201D1A9
:1010800010201FE0184928312068884201D18015BE
:1010900018E015493C312068884201D1801411E0E4
:1010A000114950312068884202D14FF4803009E064
:1010B0000D4964312068884202D14FF4801001E06C
:1010C0004FF08070084908394860012084F82100F9
:1010D00000BF002084F8200000BF606B10B12046E4
:1010E000616B8847284670BD0800024070B5044611
:1010F00000F0A6F906462546681C10B104480078A1
:10110000054400BF00F09CF9801BA842FAD370BDD3
:10111000080000202DE9F8470346002294466EE1BE
:101120004FF0010808FA02F4D1F8008008EA040040
:10113000A0427DD1DFF8DCA2D1F80480A8EB0A0937
:10114000D0453AD014DCB8F1030F50D009DCB8F127
:10115000000F31D0B8F1010F1CD0B8F1020F49D106
:1011600020E0B8F1110F18D0B8F1120F42D11EE0F3
:10117000B9F5881F25D006DCB9F5803F20D0B9F538
:10118000801F37D11AE0B9F5001F18D0B9F5041F38
:1011900030D117E0D1F80CC02DE0D1F80C8008F167
:1011A000040C28E0D1F80C8008F1080C23E0D1F8F9
:1011B0000C8008F10C0C1EE000BF00BF00BF00BF98
:1011C00000BF00BFD1F80880B8F1000F02D14FF086
:1011D000040C0BE0D1F80880B8F1010F03D14FF0F7
:1011E000080C1C6102E04FF0080C5C6103E04FF05A
:1011F000000C00E000BF00BFFF2801D8984601E0C6
:1012000003F104084646FF2802D84FEA820803E0AB
:10121000A2F108084FEA88084746D6F800804FF048
:101220000F0909FA07F928EA09080CFA07F900E09A
:1012300088E048EA0908C6F80080D1F8048008F080
:101240008058B8F1805F7DD100BFDFF8CC81D8F83D
:10125000188048F00108DFF8C091C9F81880C84626
:10126000D8F8188008F00108CDF8008000BF00BF52
:101270004FEAB9384FEA920958F829504FEA827874
:101280004FEA18794FF00F0808FA09F825EA08051F
:10129000DFF88881434502D14FF0000816E0DFF8FF
:1012A0008081434502D14FF001080FE0DFF87481DF
:1012B000434502D14FF0020808E0DFF86C81434556
:1012C00002D14FF0030801E04FF004084FEA8279A1
:1012D0004FEA197908FA09F848EA0505DFF84C8160
:1012E0004FEA920948F82950D1F8048008F4801890
:1012F000B8F5801F0AD1DFF83881D8F8008048EAB5
:101300000008DFF82C91C9F8008009E0DFF820819F
:10131000D8F8008028EA0008DFF81491C9F80080A6
:10132000D1F8048008F40018B8F5001F10D1DFF8D8
:10133000008108F10408D8F8008048EA0008DFF8C6
:10134000F09000E05AE009F10409C9F800800DE0CE
:10135000DFF8DC8008F10408D8F8008028EA0008EB
:10136000DFF8CC9009F10409C9F80080D1F80480B5
:1013700008F40038B8F5003F0ED1DFF8B480A8F1CA
:101380000408D8F8008048EA0008DFF8A490A9F122
:101390000409C9F800800DE0DFF89480A8F1040882
:1013A000D8F8008028EA0008DFF88490A9F1040941
:1013B000C9F80080D1F8048008F48038B8F5803F7F
:1013C0000ED1DFF86C80A8F10808D8F8008048EA50
:1013D0000008DFF85C90A9F10809C9F800800DE069
:1013E000DFF84C80A8F10808D8F8008028EA000847
:1013F000DFF83C90A9F10809C9F80080521CD1F827
:10140000008028FA02F8B8F1000F7FF489AEBDE839
:10141000F887000000001110001002400008014091
:10142000000C014000100140001401400800014080
:10143000080401400AB1016101E00B040361704737
:101440000148006870470000000000200348006861
:1014500003490978084401490860704700000020EA
:101460000800002010B50848006840F01000064948
:101470000860032000F0A8F80F2000F007F800F043
:101480002BF8002010BD00000020024070B504467B
:101490000E4800784FF47A71B1FBF0F00C490968FE
:1014A000B1FBF0F5284600F061FF08B1012070BDE6
:1014B000102C07D200222146501E00F047F80548A4
:1014C000046001E00120F2E70020F0E708000020BE
:1014D0000C0000200400002008B500BF11488069FE
:1014E00040F001000F4988610846806900F0010062
:1014F000009000BF00BF00BF0846C06940F08050A8
:10150000C8610846C06900F08050009000BF00BF6D
:1015100000BF0549486820F0E06040F00070486076
:1015200000BF08BD0010024000000140014608460F
:10153000002809DB00F01F0301229A4043099B00A9
:1015400003F1E023C3F8002100BF70472DE9F05FED
:1015500080460D461646002702F0ACFC0746394689
:101560002A46334601F00700C0F1070ABAF1040F1A
:1015700002D94FF0040A01E0C0F1070AD14600F198
:10158000040ABAF1070F02D24FF0000A01E0A0F1FD
:10159000030AD4464FF0010A0AFA09FAAAF1010A2D
:1015A0000AEA020A0AFA0CFA4FF0010B0BFA0CFBDA
:1015B000ABF1010B0BEA030B4AEA0B042146404650
:1015C00002F080FCBDE8F09F00BF00F00702064B70
:1015D00019684FF6FF031940044B0B4343EA0221FD
:1015E000014B196000BF70470CED00E00000FA05E8
:1015F00070B504460D460CB9012070BD5A4800680C
:1016000000F00700A8420ED25748006820F00700FB
:101610002843554908600846006800F00700A842C2
:1016200001D00120E9E7207800F0020002281DD156
:10163000207800F00400042805D14C48406840F4AC
:10164000E0604A494860207800F00800082805D189
:101650004648406840F46050444948604348406808
:1016600020F0F000A168084340494860207800F06D
:10167000010078B36068012806D13C48006800F496
:10168000003090B90120B8E76068022806D13748D9
:10169000006800F0007040B90120AEE733480068F0
:1016A00000F0020008B90120A7E73048406820F0A8
:1016B0000300616808432D494860FFF7C1FE0646F4
:1016C00009E0FFF7BDFE801B41F28831884202D954
:1016D000032092E707E02548406800F00C006168AD
:1016E000B0EB810FEDD12048006800F00700A84260
:1016F0000ED91D48006820F0070028431A490860E9
:101700000846006800F00700A84201D0012074E7F5
:10171000207800F00400042807D11448406820F421
:10172000E060E168084311494860207800F0080053
:10173000082808D10D48406820F46050216940EA2B
:10174000C1000A49486000F03FF808494968C1F300
:101750000311074A515CC840064908600648006802
:10176000FFF794FE002048E70020024000100240EE
:10177000EA6F00080C000020040000200148006807
:10178000704700000C00002000B5FFF7F7FF044988
:101790004968C1F30221034A515CC84000BD000002
:1017A00000100240FA6F000800B5FFF7E7FF044998
:1017B0004968C1F3C221034A515CC84000BD000022
:1017C00000100240FA6F000870B5002100220024CA
:1017D00000230020134D696801F00C05F5B1042DBC
:1017E00002D0082D19D101E00F4819E00F4DC1F3C7
:1017F0008346AB5D01F4803555B10A4D6D68C5F384
:1018000040450B4E725D084D5D43B5FBF2F402E0BE
:10181000084D03FB05F4204602E000BF024800BF6C
:1018200000BF70BD0010024000127A00D86F00089F
:10183000E86F000800093D00F8B504460CB9012026
:10184000F8BD207800F00100002878D0F848406802
:1018500000F00C0004280CD0F548406800F00C00A3
:10186000082811D1F248406800F48030B0F5803F7C
:101870000AD1EF48006800F4003000285FD06068AB
:1018800000285CD10120DBE700BF6068B0F5803F35
:1018900006D1E748006840F48030E549086028E058
:1018A000606858B9E248006820F48030E049086078
:1018B0000846006820F4802008601AE06068B0F5EF
:1018C000A02F0BD1DA48006840F48020D849086086
:1018D0000846006840F4803008600AE0D448006898
:1018E00020F48030D24908600846006820F4802047
:1018F000086000BF606888B1FFF7A2FD054606E0FA
:10190000FFF79EFD401B642801D9032098E7C848D3
:10191000006800F400300028F2D010E0FFF790FDDE
:10192000054606E0FFF78CFD401B642801D9032023
:1019300086E7BF48006800F400300028F2D1207824
:1019400000F00200022857D1B948406800F00C00AE
:1019500050B1B748406800F00C00082818D1B448CE
:10196000406800F4803098B9B148006800F0020087
:1019700020B12069012801D0012061E7AC4800684E
:1019800020F0F800616940EAC100A949086033E02D
:101990002069E8B10120A7490860FFF751FD05461D
:1019A00006E0FFF74DFD401B022801D9032047E761
:1019B0009F48006800F002000028F2D09C480068B0
:1019C00020F0F800616940EAC1009949086013E01D
:1019D000002098490860FFF733FD054606E0FFF751
:1019E0002FFD401B022801D9032029E790480068F9
:1019F00000F002000028F2D1207800F0080008284A
:101A00002DD1A069B8B101208B490860FFF718FDFE
:101A1000054606E0FFF714FD401B022801D903200C
:101A20000EE78348406A00F002000028F2D001204F
:101A300001F01AFE13E000207F490860FFF700FD67
:101A4000054606E0FFF7FCFC401B022801D90320F5
:101A5000F6E67748406A00F002000028F2D12078CC
:101A600000F00400042873D100277148C06900F019
:101A7000805070B900BF6E48C06940F080506C491A
:101A8000C8610846C06900F08050009000BF00BFE8
:101A900001276A48006800F48070B0B967480068A0
:101AA00040F4807065490860FFF7CAFC054606E00F
:101AB000FFF7C6FC401B642801D90320C0E65F483D
:101AC000006800F480700028F2D000BFE0680128B0
:101AD00006D15748006A40F001005549086227E0E6
:101AE000E06858B95248006A20F001005049086285
:101AF0000846006A20F00400086219E0E068052842
:101B00000BD14B48006A40F004004949086208467E
:101B1000006A40F0010008620AE04548006A20F0CF
:101B20000100434908620846006A20F00400086288
:101B300000BFE068A0B1FFF783FC054609E0FFF7AE
:101B40007FFC401B41F28831884202D9032077E6AE
:101B500022E03748006A00F002000028EFD012E0CF
:101B6000FFF76EFC054608E0FFF76AFC401B41F2F8
:101B70008831884201D9032062E62D48006A00F0CE
:101B800002000028F0D1012F05D12948C06920F0BA
:101B900080502749C86100BFE069C8B32448406845
:101BA00000F00C00082860D0E069022848D100202D
:101BB00020490866FFF744FC054606E0FFF740FCB5
:101BC000401B022801D903203AE61948006800F0BA
:101BD00000700028F2D1206AB0F5803F07D1144888
:101BE000406820F40030A168084311494860D4E9F6
:101BF000080108430E49496821F4741108430C494F
:101C0000486001200B490866FFF71AFC054607E00B
:101C10003DE0FFF715FC401B022801D903200FE629
:101C20000348006800F000700028F2D02FE00000A8
:101C30000010024000004242800442420070004016
:101C4000002014490866FFF7FBFB054606E0FFF796
:101C5000F7FB401B022801D90320F1E50E4800687C
:101C600000F000700028F2D111E0E069012800D1F5
:101C7000E6E50948466806F48031206A814204D1CD
:101C800006F47011606A814201D00120D8E500207D
:101C9000D6E50000000042420010024010B50446A4
:101CA0000CB9012010BD606A38B96068B0F5827F58
:101CB00000D105E00021E16102E0002121616161C4
:101CC0000021A16294F8510028B9002084F8500046
:101CD000204600F043F8022084F851002068006894
:101CE00020F0400021680860A08800F482702189FB
:101CF00001F404410843A18901F400610843217CF7
:101D000001F002010843217D01F001010843218B0C
:101D100001F400710843217F01F0380108432021BC
:101D2000095D01F080010843218D01F40051084351
:101D3000216808600421A06901EA10402168486018
:101D40002068C06920F400602168C86100206065D7
:101D5000012084F851000020A4E7000010B586B0EF
:101D60000446002002900390049005901A492068D0
:101D700088422FD100BF1948C06940F480401749FC
:101D8000C8610846C06900F48040019000BF00BFF0
:101D900000BF0846806940F00800886108468069F5
:101DA00000F00800019000BF00BF4FF420400290F7
:101DB000022003900320059002A90948FFF7AAF921
:101DC0004FF48040029000200390049002A9044840
:101DD000FFF7A0F906B010BD003800400010024027
:101DE000000C01402DE9F8430446884616461D467E
:101DF00094F85100012802D00220BDE8F883606801
:101E0000B0F5827F0CD1A06850B9042084F851004D
:101E10003346424641462046009500F083F9ECE700
:101E2000FFF70EFB0746B8F1000F00D00EB90120F6
:101E3000E3E700BF94F85000012801D10220DCE75D
:101E4000012084F8500000BF042084F851000020D5
:101E50006065C4F83880A687E6872063A086E086A0
:101E600020646064A068B0F5004F0BD12068006862
:101E700020F04000216808602068006820F480405D
:101E8000216808602068006800F04000402805D004
:101E90002068006840F0400021680860E06830BBBE
:101EA00021E02068806800F0010050B12068007BCC
:101EB000A16B0870A06B401CA063E08F401EE08700
:101EC00011E0FFF7BDFAC01BA84201D3681C00B99E
:101ED0004DB9012084F8510000BF002084F8500063
:101EE00000BF032089E7E08F0028DAD125E021E058
:101EF0002068806800F0010050B12068C068A16BC4
:101F00000880A06B801CA063E08F401EE08711E07A
:101F1000FFF796FAC01BA84201D3681C00B94DB95F
:101F2000012084F8510000BF002084F8500000BF59
:101F3000032062E7E08F0028DAD13A46294620469E
:101F400001F0A6FB08B120206065012084F8510053
:101F500000BF002084F8500000BF606D08B1012070
:101F60004BE7002049E72DE9F84304460F461646A3
:101F70001D46FFF765FA8046B14694F851000128E6
:101F800002D00220BDE8F88307B10EB90120F9E7BD
:101F900000BF94F85000012801D10220F2E701208F
:101FA00084F8500000BF032084F8510000206065D1
:101FB0002763A686E686A063A087E0876064206426
:101FC000A068B0F5004F0BD12068006820F04000F9
:101FD000216808602068006840F48040216808603B
:101FE0002068006800F04000402805D020680068A4
:101FF00040F0400021680860E068B0F5006F37D11C
:10200000606810B1B9F1010F09D1206B0088216817
:10201000C860206B801C2063E08E401EE08623E0B9
:102020002068806800F0020002280AD1206B008836
:102030002168C860206B801C2063E08E401EE08613
:1020400012E0FFF7FDF9A0EB0800A84201D3681CDD
:1020500000B94DB9012084F8510000BF002084F878
:10206000500000BF03208DE7E08E0028D8D136E075
:10207000606810B1B9F1010F09D1206B00782168B7
:102080000873206B401C2063E08E401EE08623E036
:102090002068806800F0020002280AD1206B0078D6
:1020A00021680873206B401C2063E08E401EE08690
:1020B00012E0FFF7C5F9A0EB0800A84201D3681CA5
:1020C00000B94DB9012084F8510000BF002084F808
:1020D000500000BF032055E7E08E0028D8D14246CB
:1020E0002946204601F010FB08B120206065A06859
:1020F00050B900BF002000902068C06800902068A0
:102100008068009000BF00BF012084F8510000BF2C
:10211000002084F8500000BF606D08B1012031E755
:1021200000202FE72DE9FE4F04460F4690461D463E
:102130000C9E01200190FFF783F9814694F851B07D
:1021400060680290AA46BBF1010F0BD00298B0F56F
:10215000827F04D1A06810B9BBF1040F02D0022025
:10216000BDE8FE8F1FB1B8F1000F00D00DB90120FE
:10217000F6E700BF94F85000012801D10220EFE7F4
:10218000012084F8500000BF94F85100042802D0C8
:10219000052084F8510000206065C4F83880E58788
:1021A000A5872763E586A5862064606420680068AB
:1021B00000F04000402805D02068006840F0400052
:1021C00021680860E068B0F5006F52D1606810B116
:1021D000BAF1010F09D1206B00882168C860206B1B
:1021E000801C2063E08E401EE0863BE02068806813
:1021F00000F00200022810D1E08E70B10198012891
:102200000BD1206B00882168C860206B801C206384
:10221000E08E401EE086002001902068806800F07B
:10222000010068B1E08F58B12068C068A16B0880D8
:10223000A06B801CA063E08F401EE087012001900E
:10224000FFF7FEF8A0EB0900B0420BD3701C48B1B9
:10225000012084F8510000BF002084F8500000BF26
:1022600003207DE7E08E0028C0D1E08F0028BDD19B
:1022700052E0606810B1BAF1010F09D1206B00780B
:1022800021680873206B401C2063E08E401EE086AE
:102290003CE02068806800F00200022810D1E08E47
:1022A00070B1019801280BD1206B00782168087368
:1022B000206B401C2063E08E401EE08600200190D1
:1022C0002068806800F0010068B1E08F58B1206894
:1022D000C068A16B0870A06B401CA063E08F401E1B
:1022E000E08701200190FFF7ABF8A0EB0900B042B6
:1022F00001D3701C00B94EB9012084F8510000BF11
:10230000002084F8500000BF032029E7E08E002859
:10231000BFD1E08F0028BCD14A463146204601F0AB
:10232000F3F940B12020606500BF002084F8500020
:1023300000BF012014E7A06850B900BF0020009042
:102340002068C068009020688068009000BF00BFCF
:10235000012084F8510000BF002084F8500000BF25
:10236000606D08B10120FBE60020F9E670B5044677
:102370002546681EB0F1807F01D301200FE0681E62
:102380004FF0E02148610F214FF0FF3001F09AFD3E
:1023900000204FF0E021886107200861002070BD17
:1023A000704770472DE9F84F04462068056820689B
:1023B000C668206847694FF00009CA4605F00F0952
:1023C000B9F1000F0AD105F0200038B106F0200065
:1023D00020B1204601F0E4FABDE8F88FB9F1000F12
:1023E0007BD007F0010018B906F49070002874D073
:1023F00005F0010030B106F4807018B1606C40F057
:102400000100606405F0040030B107F0010018B16C
:10241000606C40F00200606405F0020030B107F02B
:10242000010018B1606C40F00400606405F0080021
:1024300048B106F0200010B907F0010018B1606C37
:1024400040F008006064606C002845D005F0200072
:1024500028B106F0200010B1204601F0A1FA206852
:102460004069C0F3801A606C00F0080010B9BAF13E
:10247000000F2CD0204601F04DFA2068406900F092
:10248000400000B300BF00BF2168143151E8001FB5
:1024900021F040002168143141E80002002AF3D104
:1024A00000BFE06B50B17748E16B4863E06BFEF72B
:1024B000C5FD88B1E06B416B88470DE02046FFF712
:1024C00070FF09E009E02046FFF76BFF04E02046BB
:1024D000FFF767FF002060647EE7206B012877D15B
:1024E00005F01000002873D006F010000028FAD084
:1024F00000BF0020009020680068009020684068BD
:10250000009000BF00BF2068406900F04000002834
:102510005FD0E06B006840681FFA80F8B8F1000FE8
:1025200055D0A08D404552DDA4F82E80E06B806927
:10253000202843D000BF00BF21680C3151E8001FA4
:1025400021F4807021680C3141E80002002AF3D1A7
:1025500000BF00BF00BF2168143151E8001F21F007
:1025600001002168143141E80002002AF3D100BFC4
:1025700000BF00BF2168143151E8001F21F0400066
:102580002168143141E80002002AF3D100BF202065
:1025900084F842000020206300BF00BF21680C3196
:1025A00051E8001F21F0100021680C3141E80002C1
:1025B000002AF3D100BFE06BFEF714FD0220606338
:1025C000A08DE28D801A81B22046FFF7E9FE03E775
:1025D00042E0A08DE18D401A1FFA80F8E08DD0B363
:1025E000B8F1000F37D000BF00BF21680C3151E8AF
:1025F000001F21F4907021680C3141E80002002A8C
:10260000F3D100BF00BF00BF2168143151E8001FA3
:1026100021F001002168143141E80002002AF3D1C1
:1026200000BF202084F842000020206300BF00BFCC
:1026300021680C3151E8001F21F0100021680C3195
:1026400041E80002002AF3D100BF02206063414646
:102650002046FFF7A5FEBFE605F0800030B106F08A
:10266000800018B1204601F097FAB5E605F0400069
:1026700030B106F0400018B1204601F081F9ABE618
:1026800000BFA9E60139000810B504460CB90120C5
:1026900010BDA06900B100E000BF94F8410028B966
:1026A000002084F84000204600F02AF8242084F816
:1026B00041002068C06820F400502168C8602046AE
:1026C00001F0ECF92068006920F49040216808616D
:1026D0002068406920F02A00216848612068C068AD
:1026E00040F400502168C86000206064202084F815
:1026F000410084F842000020606300BFC8E700008A
:1027000010B586B004460020029003900490059016
:102710003749206888422FD100BF3648806940F48D
:102720008040344988610846806900F48040019007
:1027300000BF00BF00BF0846806940F00400886108
:102740000846806900F00400019000BF00BF4815F2
:102750000290022003900320059002A92648FEF76C
:10276000D9FC4FF48060029000200390049002A9ED
:102770002148FEF7CFFC39E020492068884235D156
:1027800000BF1C48C06940F400301A49C8610846BF
:10279000C06900F40030019000BF00BF00BF0846D0
:1027A000806940F0040088610846806900F00400F8
:1027B000019000BF00BF042002900220039003207C
:1027C000059002A90C48FEF7A5FC08200290002005
:1027D0000390049002A90848FEF79CFC00221146D1
:1027E0002620FEF7B3FE2620FEF7A0FE06B010BDA1
:1027F0000038014000100240000801400044004041
:1028000070472DE9F84F04460E46174699464FF09B
:10281000000A94F84100202850D106B117B90120D0
:10282000BDE8F88F00206064212084F84100FEF7A5
:1028300007FE8246A784E784A068B0F5805F04D1D4
:10284000206910B90025B04602E035464FF0000877
:102850001EE05346002280212046CDF8009001F072
:10286000CBF920B1202084F841000320D8E745B9F6
:10287000B8F80000C0F308002168486008F10208B9
:1028800003E02878216848606D1CE08C401EE084DD
:10289000E08C0028DDD15346002240212046CDF8AF
:1028A000009001F0A9F920B1202084F84100032014
:1028B000B6E7202084F841000020B1E70220AFE70E
:1028C000704700BFFEE70000014908607047000044
:1028D000EC00002030B599B04FF480602149CDE97B
:1028E0000001214B4FF47A7220490290204800F0F9
:1028F00043F958221F4903A8FDF778FC03A91C4897
:1029000000F064F90446002C12D12F211AA0FDF723
:10291000B5FC28B12F2118A0FDF7B0FC401C00E049
:1029200015A00546462229461BA001F0B3FA11E086
:102930002F2111A0FDF7A2FC28B12F210EA0FDF739
:102940009DFC401C00E00CA005464A2229461BA025
:1029500001F0A0FA224B002222A1054800F0E8FC79
:1029600019B030BD4C2F00204C2B0020E02A002055
:10297000F02A00205C7000082E2E5C496E745C4DBD
:102980005154545C496E745F4D5154545F436C69AB
:10299000656E742E630000005B25733A25645D4DFF
:1029A000515454BFCDBBA7B6CBC1ACBDD342524FDF
:1029B0004B4552B3C9B9A60D0A0000005B25733A16
:1029C00025645D4D515454BFCDBBA7B6CBC1ACBD42
:1029D000D342524F4B4552CAA7B0DC0D0A0000004B
:1029E00089510008434F4E534F4C455F544F5F424F
:1029F0004D53000070B50021184800F027FE40F24A
:102A00005B7217491548FEF7CDF90446012C12D127
:102A10002F2114A0FDF732FC28B12F2111A0FDF7C2
:102A20002DFC401C00E00FA005463122294615A0D0
:102A300001F030FA11E02F210AA0FDF71FFC28B1A8
:102A40002F2108A0FDF71AFC401C00E005A0054658
:102A50003522294617A001F01DFA70BDE02A00209A
:102A6000F00000202E2E5C496E745C4D5154545C75
:102A7000496E745F4D5154545F436C69656E742E9A
:102A8000630000005B25733A25645DB4B4BDA8CD36
:102A9000A8B5C0B3C9B9A62CCDA8B5C0D3EBB7FEB5
:102AA000CEF1C6F7BDA8C1A2C1B4BDD3B3C9B9A602
:102AB0000D0A00005B25733A25645DB4B4BDA8CD52
:102AC000A8B5C0B3C9B9A62CCDA8B5C0D3EBB7FE85
:102AD000CEF1C6F7BDA8C1A2C1B4BDD3CAA7B0DCB0
:102AE0000D0A000010B500F00FF8FFF783FFFFF7A5
:102AF000F1FE10BD10B54FF47A71024800F08CFC65
:102B000010BD0000F02A002010B503F043FD0022A4
:102B10004FF480711648FEF78DFC0A20FEF730F95D
:102B2000012211021248FEF785FC0A20FEF728F95F
:102B3000062210494FF4106001F068F904220D4993
:102B40000E31900101F062F904220A490A314FF472
:102B5000A06001F05BF904220649891D4FF4706002
:102B600001F054F90A20FEF711F902F085FE10BDBC
:102B7000000C0140880000202DE9F05F04460E465D
:102B800017469846DDE90BABDDF828902665002551
:102B900005E0002104F1240040F835106D1C052DDE
:102BA000F7DB6760C4F81080C4F80890C4F814A07C
:102BB000C4F80CB0002020622077E064012020607F
:102BC00004F1540000F080FEBDE8F09FF0B59BB02A
:102BD00004460D464FF0FF365822254903A8FDF75D
:102BE00005FB0027206A00B13BE019A800F06CFE4D
:102BF00019A8616800F060FE05B903AD288BA061DB
:102C000004F15400A16900F04BFE2A46A168206936
:102C100000F002FA071E00DC23E019AA394620461C
:102C200003F060FB061E00D01BE019AA022120461B
:102C300003F0B9FE022811D1FF200290002001907C
:102C400002A901A8E368626900F04AF8012802D1EC
:102C50009DF8086001E04FF0FF3601E04FF0FF36CD
:102C600000BF0EB90120206230461BB0F0BD00004D
:102C7000047000082DE9FE4F04460D4616461F4617
:102C8000DDF830A00020029001978046814601A81F
:102C900003F01EF98DF808000298C0F3C0002870F8
:102CA0000298C0F3031020706946019800F01CF9E7
:102CB0008146019908440190DDE9001000EB01080C
:102CC0000198A8EB0000022800DA06E001A803F052
:102CD00006F930804FF0010900BF4846BDE8FE8F7D
:102CE0002DE9FF4704460D461646994600200390FD
:102CF000029600278046009002A803F0E9F88DF8BC
:102D00000C000398C0F30310022800D01FE001A9B3
:102D1000029800F0E9F88046029908440290DDE943
:102D2000011047180298381A022800DA0FE002A8AA
:102D300003F0CEF88DF800000098C0F3C0102070AA
:102D400002A803F0C5F828704FF0010800BF404604
:102D500004B0BDE8F0872DE9FF5F06460C46174634
:102D60009846DDE90FABDDF838900020039011980C
:102D70000290002500200190009002A803F0A8F81E
:102D80008DF80C000398C0F30310032800D032E044
:102D90000398C0F3C00030700398C0F34100206076
:102DA000039800F0010038706946029800F09CF822
:102DB00001900299084402900099029845182A4609
:102DC00002A9484603F098F810B10298281A00D5D5
:102DD00011E02068002804DD02A803F080F8A8F8BC
:102DE00000000298281ACBF800000298CAF80000E8
:102DF0000120019000BF019804B0BDE8F09F2DE9CB
:102E0000FE4F05460E4614461F46DDE90C9B00208A
:102E10000290CDF804908046824601A803F058F84D
:102E20008DF808000298C0F30310092800D02CE0A8
:102E30006946019800F058F88246019908440190CB
:102E4000DDE9001000EB01080198A8EB0000022862
:102E500000DA1AE001A803F042F828800020206080
:102E60000DE02068B04202DD4FF0FF3A0DE001A80E
:102E700003F02EF82268511C216047F822000198C7
:102E80004045EED34FF0010A00BF5046BDE8FE8F2B
:102E90002DE9F84305460C46012600270020206056
:102EA00000BF4FF0FF38781C0746042801DD00BF43
:102EB00017E001216846A8478046B8F1010F00D00D
:102EC0000FE09DF8001001F07F01206801FB060073
:102ED0002060F6019DF8000000F080000028E0D19D
:102EE00000BF3846BDE8F88370B504460D46034878
:102EF000046029460248FFF7CBFF70BDE8000020C0
:102F0000A947000830B50246002300BF0846CD1788
:102F100001EB5565ED11A1EBC515ECB2CD1701EB39
:102F20005565E911002901DD44F0800418465B1C59
:102F300014540029EADC184630BD2DE9F04104465E
:102F40000E460027B846206828B125682068FDF79E
:102F500071F9074601E0A56867683046FDF76AF930
:102F60008046474508D13A4631462846FDF777F96D
:102F700010B90120BDE8F0810020FBE7401C80284B
:102F800001DA401C0AE0B0F5804F01DA801C05E050
:102F90000349884201DAC01C00E0001D70470000B0
:102FA000FFFF1F002DE9FC4704460E4615461F464D
:102FB000DDF828800020019081460094042E02DA7A
:102FC0006FF0010924E0019865F307100190019862
:102FD00067F3C3000190062D01D1012100E000211B
:102FE000019861F3420001909DF80410684603F0D7
:102FF000C7FD02210098FFF785FF00990844009063
:103000004146684603F0C2FD0098A0EB040900BFEA
:103010004846BDE8FC8700002DE9FE4305460E4604
:103020001446029500200190009000274FF0FF38D1
:10303000204600F0A5F807468146FFF79FFFB04203
:1030400002DD6FF001088FE000208DF80400019888
:1030500020F0F000103001909DF8041002A803F059
:103060008FFD39460298FFF74DFF02990844029000
:10307000207A042808D13EA102A803F06DFD0421A6
:1030800002A803F07DFD07E03BA102A803F064FD68
:10309000032102A803F074FD00208DF80000A17E3A
:1030A000009861F341000090E07E08B1012100E04A
:1030B0000021009861F3820000900098C0F3800026
:1030C00058B194F83D10009861F3C400009094F852
:1030D0003C10009861F345100090206C08B9A06C7A
:1030E00020B1009820F0800080300090E06C08B99A
:1030F000606D20B1009820F04000403000909DF8B5
:10310000001002A803F03CFD218B02A803F03EFD55
:1031100002A8D4E90423E16803F050FDE07E58B131
:1031200002A8D4E90A23616A03F048FD02A8D4E9A1
:103130000D23216B03F042FD0098C0F3C01028B1AD
:1031400002A8D4E91123216C03F038FD0098C0F3E4
:10315000801028B102A8D4E91423E16C03F02EFDFD
:103160000298A0EB050800BF4046BDE8FE830000C2
:103170004D515454000000004D51497364700000DB
:1031800070B504460025207A032801D10C2503E000
:10319000207A042800D10A25D4E90412E06800F05E
:1031A0004FF9801C0544E07E68B1D4E90A12606AD8
:1031B00000F046F9861CD4E90D12206B00F040F9AE
:1031C0003044801C0544206C08B9A06C30B1D4E9AF
:1031D0001112206C00F034F9801C0544E06C08B931
:1031E000606D30B1D4E91412E06C00F029F9801C54
:1031F0000544284670BD70B504460D460C2229468C
:10320000204600F06FF870BD2DE9FF5F05460E46C1
:1032100017469846DDE90E9A03950020029001902A
:10322000009000245146484600F045F8834601903E
:10323000FFF7A4FEB04202DDA01E009037E00020A0
:103240008DF80800029820F0F0008030029002987B
:1032500067F3C3000290029820F00600801C0290E1
:103260009DF8081003A803F08BFC01990398FFF761
:1032700049FE039908440390414603A803F086FCE5
:1032800000240EE004EB44000AEB800C03A89CE849
:103290000E0003F093FC1098015D03A803F070FC8E
:1032A000641C4C45EEDB0398401B009000BF009867
:1032B00004B0BDE8F09F2DE9F04105460E46022717
:1032C00000240AE004EB440006EB800393E80700C7
:1032D00000F0B6F8C01C0744641CAC42F2DB384670
:1032E000BDE8F0812DE9FC4104460D46164600205C
:1032F0000190471E0094022D01DA871E15E0002080
:103300008DF80400019866F3071001909DF80410F1
:10331000684603F035FC00210098FFF7F3FD0099A3
:10332000084400900098071B00BF3846BDE8FC81A8
:103330002DE9F0478CB004460D4616461F464FF067
:10334000FF384FF00009002007900890099007957A
:103350000696206A00B95BE00AA800F0B5FA0AA850
:10336000616800F0A9FA204601F0CAFD1FFA80FA50
:1033700006A807A90122CDE90021029053460022A8
:10338000A1682069FFF740FF8146B9F1000F00DC1A
:103390003EE00AAA4946204602F0A4FFB0F1000828
:1033A00000D035E00AAA0921204603F0FCFA0928DA
:1033B0002BD100200590401E0490E168606904ABA9
:1033C00005AACDE90001012103A8FFF718FD012896
:1033D00001D1DDF81080B8F1800F15D000200FE08A
:1033E00004F1240151F8301049B904F1240141F8E5
:1033F000305001EBC0014F604FF0000802E0401C6C
:103400000528EDDB00BF00BF01E04FF0FF3800BF33
:1034100040460CB0BDE8F0877CB504460D4600265A
:10342000684600F051FA2946684600F045FA6946B8
:10343000204601F0DFFB401C00B9761E30467CBD03
:1034400037B50024009820B10098FCF7F3FE04463D
:1034500000E0019C20463EBD10B5104810490860B0
:103460001220486000210E4881604FF08071C160D9
:103470004FF4602101614FF4401141610021017658
:103480000121417681760021C17601774177FDF7F0
:10349000ABFC08B1FDF7A5FC10BD000000640040C6
:1034A000F800002000B585B0002001900290039044
:1034B000049000BF3148806940F010002F498861B6
:1034C0000846806900F01000009000BF00BF00BFF8
:1034D0000846806940F0200088610846806900F055
:1034E0002000009000BF00BF00BF0846806940F088
:1034F000040088610846806900F00400009000BF65
:1035000000BF00BF0846806940F008008861084697
:10351000806900F00800009000BF00BF01228915FB
:103520001748FDF787FF012211021648FDF782FFB9
:103530004FF480700190012002900020039002203F
:10354000049001A90E48FDF7E5FD4FF4807001904D
:1035500001200290002003900220049001A9094854
:10356000FDF7D8FD4FF40070019000200290039009
:1035700001A90448FDF7CEFD05B000BD00100240D2
:1035800000080140000C014010B50E480E490860CB
:103590004FF48270486000210B488160C160016176
:1035A00041614FF4007181610021C161016241629A
:1035B00081620A21C162FEF771FB08B1FDF711FCBF
:1035C00010BD0000003800402001002010B50B485D
:1035D0000B4908604FF4E1304860002108488160E1
:1035E000C16001610C21416100218161C161FFF76E
:1035F0004BF808B1FDF7F5FB10BD000000380140A5
:103600007801002010B50B480B4908604FF4E130F9
:103610004860002108488160C16001610C2141615E
:1036200000218161C161FFF72FF808B1FDF7D9FBD7
:1036300010BD000000440040C001002000BFFEE7B4
:1036400000BFFEE741600260704700000160034A6E
:103650004260034A8260034AC260704735690008CD
:10366000736900082969000808B508490968C9088C
:103670004FF47A72B1FBF2F14143009100BF00BFF9
:1036800000994A1E00920029F9D108BD0C000020C3
:10369000F8B504460E4615466068B0F5827F0DD138
:1036A000A068B0F5004F03D0A068B0F5806F05D1D9
:1036B0002068006820F04000216808606068B0F56C
:1036C000827F11D1A068B0F5806F0DD13346002202
:1036D00001212046009500F039F898B1606D40F066
:1036E000200060650320F8BD33460022802120467B
:1036F000009500F02BF828B1606D40F02000606567
:103700000320F0E70020EEE7F8B504460E46154624
:103710003346012202212046009500F017F828B117
:10372000606D40F0200060650320F8BD3346002244
:1037300080212046009500F009F828B1606D40F026
:10374000200060650320F0E70020EEE72DE9F84F48
:1037500004460D4690461E46DDF82890FDF770FEA3
:10376000A0EB0900371AFDF76BFE82462C48006873
:10377000C0F3CB307843009045E0701C002842D065
:10378000FDF75EFEA0EB0A00B84200D2A7BB20689E
:10379000406820F0E000216848606068B0F5827FF2
:1037A0000DD1A068B0F5004F03D0A068B0F5806FD0
:1037B00005D12068006820F0400021680860A06AF8
:1037C000B0F5005F0DD100BF2068006820F4005004
:1037D000216808602068006840F400502168086093
:1037E00000BF012084F8510000BF002084F8500081
:1037F00000BF0320BDE8F88FFFE7009800B900275D
:103800000098401E0090206880682840A84201D19E
:10381000012000E000204045AFD10020EAE7000091
:103820000C00002010B5FDF711FE03F04FFA01283F
:1038300001D003F0FDF910BD00B58FB0282105A817
:10384000FCF7EDFC14216846FCF7E9FC012005902B
:1038500000040690002007900120099002200C909F
:10386000C1030D914FF4E0110E9105A8FDF7E4FF9F
:1038700008B1FDF7B6FA0F20009002200190002059
:1038800002904FF48060039000200490022168466B
:10389000FDF7AEFE08B1FDF7A4FA0FB000BD70470A
:1038A00001EB4102C2EBC112024B1B6803EBC202E7
:1038B00042607047E4000020024A12680A444260F5
:1038C00070470000E40000200021416070470000C4
:1038D0000146034B48681B68C21AD00F70470000AE
:1038E000E40000200146054B48681B68C21A002A04
:1038F00001DA002070471046FCE70000E4000020D9
:1039000070B505466C6A0020E085E0842046FEF72D
:1039100048FD70BD00BF00BF02680C3252E8002FA6
:1039200022F4907102680C3242E80013002BF3D1AC
:1039300000BF00BF00BF0268143252E8002F22F01F
:1039400001010268143242E80013002BF3D100BFDA
:10395000016B01290ED100BF00BF02680C3252E892
:10396000002F22F0100102680C3242E80013002BF5
:10397000F3D100BF202180F842100021016370477D
:1039800010B504462068C06820F040002168C86077
:10399000202084F841002046FEF792FF002010BD51
:1039A000F8B5044694F84200222875D1A068B0F515
:1039B000805F0CD1206950B90025A66A2068406854
:1039C000C0F308003080A06A801CA06215E0A56AE0
:1039D0000026A068B0F5805F03D0A06828B92069F0
:1039E00018B920684068287004E02068406800F03A
:1039F0007F002870A06A401CA062E08D401E80B24B
:103A0000E085002846D12068C06820F020002168A9
:103A1000C8602068C06820F480702168C860206891
:103A2000406920F0010021684861202084F84200AC
:103A300000206063206B012826D10020206300BF96
:103A400000BF21680C3151E8001F21F010002168EF
:103A50000C3141E80002002AF3D100BF2068006861
:103A600000F0100010280AD100BF0020009020684C
:103A70000068009020684068009000BF00BFA18DE2
:103A80002046FEF78DFC02E02046FEF7B9FE00203E
:103A9000F8BD01E00020FBE70220F9E770B504461D
:103AA0002168096921F44051E268114322681161DB
:103AB0002269A1681143626941EA02052168C96867
:103AC00041F20C62914329432268D160216849691F
:103AD00021F44071A2691143226851612D4A216885
:103AE000914202D1FDF760FE01E0FDF74DFE00EBD3
:103AF000C00101EB001162689200B1FBF2F100EB32
:103B0000C00202EB001263689B00B2FBF3F2642375
:103B1000B2FBF3F202EBC20303EB0212A1EB820150
:103B2000322202EB01116422B1FBF2F101F0F0014B
:103B300000EBC00202EB001263689B00B2FBF3F2E1
:103B40006423B2FBF3F201EB021200EBC00101EBC4
:103B5000001163689B00B1FBF3F100EBC00303EBC2
:103B600000136668B600B3FBF6F36426B3FBF6F306
:103B700003EBC30606EB0313A1EB8301322303EB34
:103B800001116423B1FBF3F101F00F01114422682C
:103B9000916070BD00380140014691F84100212834
:103BA00028D18868B0F5805F0BD1086948B90A6AE6
:103BB0001088C0F308000B685860086A801C08620F
:103BC00005E00B6A581C086218780B685860C88CAE
:103BD000401E80B2C88458B90868C06820F08000D0
:103BE0000B68D8600868C06840F040000B68D86077
:103BF000002070470220FCE72DE9F84304460D46FB
:103C000017469846089E31E0701C70B3FDF718FC0B
:103C1000A0EB0800B04200D816B90320BDE8F88335
:103C20002068C06800F00400F8B1802D1ED0402D3F
:103C30001CD020680068C0F3C000B0B100BF0020F5
:103C4000009020680068009020684068009000BFE5
:103C500000BF2046FFF75EFE0820606400BF002022
:103C600084F8400000BF0120D8E7FFE72068006823
:103C70002840A84201D1012000E00020B842C3D072
:103C80000020CBE710B50248FEF78CFB10BD00000A
:103C9000C001002000BFFEE738B504461A49C868D5
:103CA000804719494869804700BF1748406A10B1EA
:103CB0001548806A70B91448016AC4F30740884700
:103CC0001148016AC4F307208847E0B20E4A116A1E
:103CD00088470DE0200C8DF80000200A8DF80100C7
:103CE000E0B28DF8020008480321826A68469047D6
:103CF0000549C869804705460349886980470249E4
:103D000008698047284638BDB0000020F8B5044651
:103D10000E4617461F49C86880471E4948698047B4
:103D200000BF1C48406A10B11A48806AC0B91948DF
:103D3000016AC4F3074088471648016AC4F30720A4
:103D40008847E0B2134A116A8847002505E0114907
:103D5000C86980477055681C85B2BD42F7DB12E028
:103D6000200C8DF80000200A8DF80100E0B28DF8DB
:103D7000020008480321826A684690470548394690
:103D8000426A30469047034988698047014908697B
:103D90008047F8BDB000002038B504460D461A49EA
:103DA000C868804718494869804744F004041648A9
:103DB000806A90B91448016AC4F3074088471248E2
:103DC000016AC4F307208847E0B20F4A116A8847A6
:103DD0000D48016A284688470FE0200C8DF8000046
:103DE000200A8DF80100E0B28DF802008DF8035032
:103DF00005480421826A68469047034988698047DC
:103E000001490869804738BDB0000020F8B5044674
:103E10000E4617461E49C86880471D4948698047B5
:103E200044F004041A48806AC0B91948016AC4F30E
:103E3000074088471648016AC4F307208847E0B264
:103E4000134A116A8847002505E0705D104A116A1F
:103E50008847681C85B2BD42F7DB12E0200C8DF864
:103E60000000200A8DF80100E0B28DF80200084839
:103E70000321826A6846904705483946826A30467F
:103E80009047034988698047014908698047F8BD20
:103E9000B00000200FB4054B10B503A9044A0298E6
:103EA00000F0FEF810BC5DF814FB0000E54E0008C1
:103EB000F400002002480068C0F3022070470000B0
:103EC0000CED00E010B5002804DB0A07130E054ACC
:103ED000135406E00A07140E034A00F00F031B1FD9
:103EE000D45410BD00E400E018ED00E002E008C882
:103EF000121F08C1002AFAD170477047002001E064
:103F000001C1121F002AFBD1704700002DE9FF5F9D
:103F100082B00021DDE90430020DDDF840B003433A
:103F200018D044F61050A2F2FF32424315141198F3
:103F300001281FD0A5EB0B00401C5FEA000A4FF0E0
:103F400000064E4FDFF83891B046504615D5CAF1FD
:103F5000000413E0119801244AA3012801D16FEA5B
:103F60000B010298119AC0E90031C0E9024206B083
:103F7000BDE8F09FCBF10000DFE704460021404A96
:103F8000491842EB0450CDE9001012E0E00707D0D9
:103F900032463B4640464946FCF7D3FB80468946BD
:103FA00032463B4610461946FCF7CBFB06460F4609
:103FB0006410002CEAD1DDE90401DDE90023BAF147
:103FC000000F06DAFCF7BDFB42464B46FCF7B9FB97
:103FD00005E0FCF7AAFD42464B46FCF7A6FD044669
:103FE0000E460022284BFCF755FC03D84FF0FF305B
:103FF000014607E00022254B20463146FCF7FAFA3D
:10400000FCF70EFE102409E0002C0ADB0A22002334
:10401000FCF76EFC039B30321A55641E50EA010215
:10402000F2D1641C039AC4F111031444119A012AB9
:1040300003D0012208430DD10AE0084304D0002038
:104040004FF0110B119072E7A3EB0B056D1E0DE005
:104050005B4504DD4FF0000205F1010504E003DAE1
:104060004FF00002A5F10105002AECD00298119949
:10407000C0E90231C0E9004579E7000000001440C2
:104080000000F03F300000000000F0430000E03F7F
:1040900030380A2801D20120704700207047000004
:1040A0002DE9FF4F95B09A46884606460025EEE179
:1040B000252877D100242746F94A0121039400E0FE
:1040C000044316F8013F203B01FA03F01042F7D1F8
:1040D00030782A2811D06FF02F033078A0F1300209
:1040E000092A16D8039A44F0020402EB820203EB79
:1040F00042021044761C0390EFE758F8042B039219
:10410000002A03DA504244F40054039044F00204BD
:10411000761C30782E2816D116F8010F44F00404CE
:104120002A280DD06FF02F023078A0F13003092B30
:1041300009D807EB870302EB4303C718761CF3E7A4
:1041400058F8047B761C30786C280FD006DC4C289D
:1041500017D068280DD06A2814D104E0742810D034
:104160007A280FD10DE044F400140AE044F48014DE
:1041700001E044F440147278824202D104F58014C4
:10418000761C761C307866280BD013DC582877D044
:1041900009DC002875D04528F6D04628F4D04728F9
:1041A0001AD193E118E0632835D0642879D06528C6
:1041B00012D18BE1702873D008DC6728F1D0692810
:1041C0006FD06E280DD06F2806D1ACE073282CD0AC
:1041D000752874D0782853D05246179990476D1C93
:1041E00054E1C4F30250022809D003280DD0D8F8B6
:1041F000001004280DD00D6008F1040846E1D8F83D
:104200000010EA17C1E90052F6E7D8F800100D8057
:10421000F2E70D70F0E718F8041B8DF8001000208D
:104220008DF80100EB46012003E058F804BB4FF085
:10423000FF3061074FF0000102D40DE009F10101E8
:104240008946B9420FDA8145F8DB1BF809100029CD
:10425000F4D108E009F1010189468142FADB1BF83B
:1042600009100029F6D103985346A0EB090721460F
:104270003846179A00F080FA284400EB090507E059
:1042800044E008E10DE01BF8010B524617999047F6
:10429000B9F10109F7D2534621463846179AF2E0A0
:1042A00039E00A21C4F302524FF0000B0091022AB8
:1042B00006D058F8040BC117032A09D00AE023E0FE
:1042C00008F1070020F00702F2E80201904605E03D
:1042D00000B2C117042A01D140B2C117002906DA81
:1042E0000A460021404261EB02012D2202E0220534
:1042F00004D52B228DF80420012203E0E20701D02F
:104300002022F7E7914657E00A2100E010214FF004
:10431000000B00910BE010214FF0000B44F004045F
:104320000827009103E008204FF0000B0090C4F331
:104330000252022A05D058F8040B0021032A08D0A3
:1043400008E008F1070020F00702F2E802019046B9
:1043500003E080B2042A00D1C0B24FF00009220766
:104360002AD53278702A07D0DDF800C08CF0100C06
:104370005CEA0B0C05D00EE040228DF804200122EF
:1043800008E050EA010306D030238DF804308DF8A0
:10439000052002229146009B83F0080353EA0B0399
:1043A0000AD150EA010201D1620705D530228DF809
:1043B00004204FF001097F1E3278582A04D039A218
:1043C0000C920CAA02920BE03BA2F9E75B46009A22
:1043D000FCF78EFA0C9B9B5C029A521E02921370A1
:1043E00050EA0102F2D1029804A9081A00F1200B48
:1043F000600702D524F4803400E001275F4502DD28
:10440000A7EB0B0000E0002000EB0B0100900398ED
:104410004944401A0390E00306D453462146179AB4
:10442000039800F0A9F90544002706E001A85246C8
:10443000C05D179990476D1C7F1C4F45F6DBE0036C
:104440000CD553462146179A039800F095F9054478
:1044500004E030205246179990476D1C0099481E81
:1044600000900029F5DC08E0029802995246007895
:10447000491C0291179990476D1CBBF10001ABF1EB
:10448000010BF1DC5BE100F065F90544761C307846
:1044900000287FF40DAE19B02846BDE8F08F00006B
:1044A000092801003031323334353637383961620A
:1044B00063646566000000003031323334353637CE
:1044C000383941424344454600000000600700D4AB
:1044D000062708F1070020F00700F0E802238046D5
:1044E00003F0004C5FEA0C0001D097A009E0200522
:1044F00001D596A005E0E00701D095A001E0AFF25C
:104500004C001390307823F0004365280CD006DC73
:10451000452809D046281DD047287FD13BE0662892
:1045200018D067287AD136E00021112F01DB112045
:1045300000E0781CCDE9000104A90CA8FFF7E6FC17
:10454000DDE90D010C9A4FF0000B07F10109109203
:1045500000914EE04FF000400097CDE9011004A912
:104560000CA8FFF7D3FCDDE90D020C9B0F994FF06F
:10457000000B91461093009211B9791C00EB0109D0
:10458000B7EB090003D4C0F1FF3B07F10109A9EB28
:104590000700019042E0012F00DA01270021112FCE
:1045A00001DD112000E03846CDE9000104A90CA886
:1045B000FFF7ACFCDDE90D010C9A00914FF0000B08
:1045C000B946109221070FD4009A4A4503DA914662
:1045D00001E0A9F10109B9F1010F05DD109AA9F176
:1045E0000101515C3029F4D0B84202DA10F1040F15
:1045F00003DA0121CDE9011010E0002803DC834437
:10460000A9EB000102E0411C494500DD8946A0EB11
:104610000B00401C01904FF000400290200705D491
:104620000198484502DB4FF0FF30019000208DF8E3
:104630004B0002980DF14B07B0F1004F25D002203E
:104640000C902B200D90029800280CDA404202902A
:104650002D200D9007E00A210298FCF733F9303144
:10466000029007F8011D0C99481E0C900029F2DCFD
:1046700002980028EFD1791E0D980870307800F06C
:10468000200040F0450007F8020D11A8C01BC01D16
:1046900002901398007800B1012000EB0901019805
:1046A00001EBE071029801440398401A401E039008
:1046B000E00306D453462146179A039800F05CF8AD
:1046C00005441398007818B15246179990476D1C0D
:1046D000E00323D553462146179A039800F04CF87F
:1046E00005441BE0BBF1000F07DB0098584504DDD3
:1046F0001098179910F80B0001E0179930205246D6
:10470000904701980BF1010B401E05F10105019046
:1047100004D12E205246179990476D1CB9F1000123
:10472000A9F10109DEDC05E017F8010B52461799E3
:1047300090476D1C0299481E02900029F4DC5346F4
:104740002146179A03989EE62D0000002B000000DA
:10475000200000002DE9F041044600251E461746C2
:10476000880404D405E039462020B0476D1C641E3F
:10477000F9D52846BDE8F0812DE9F0410446002531
:104780001E469046C80301D5302700E02027880444
:1047900004D505E041463846B0476D1C641EF9D586
:1047A0002846BDE8F081000010B50246002309E06C
:1047B000064800680078107004480068401C034CEC
:1047C00020605B1C8B42F3DB084610BDE800002034
:1047D000014609B1086808B90020704719B1D1E94C
:1047E0000120904201D30846F7E702E08868401CA8
:1047F000886041B1D1E90120904204D28A680868FA
:10480000805C2028F2DDD1E90120904202D1886845
:10481000401E88600846E0E770B50446002526E0A3
:104820002568A08900F4807020B9A06810B1A06844
:10483000FFF7F2FFA08900F4807038B9206928B131
:104840000C4A20695168884700202061A08900F443
:10485000007038B9206A28B1064A206A5168884732
:104860000020206203484168204688472C46002CDF
:10487000D6D170BD1800002070B504460D46002248
:104880002946204600F0B6FB70BD70B504462820CE
:104890002168884705461DB128212846FBF7BFFC43
:1048A000284670BD10B5044600221146204600F08F
:1048B0006BF810BD2DE9F0478AB004460E46154648
:1048C00098461C2103A8FBF7AAFC002700202C49CE
:1048D0000860486004B106B932E0039404960020F1
:1048E0000590284A07CA07AB07C32648FFF7CDFF44
:1048F000074607B924E003A801F024FD8246FFF72C
:1049000067FF81464946384600F018FF00B917E0B6
:10491000B8F1000F0BD003A8FFF75AFFDDE9041030
:10492000884203D205990398405C00B108E01DB1AC
:10493000059903980844286038460AB0BDE8F08716
:1049400017B13846FFF768FFC4B101940020029008
:10495000DDE90410884202D20598029004E0049830
:1049600010B10498401E02901DB1DDE90101084418
:1049700028600348DDE9011206C000BF0020DCE723
:1049800010000020180000202DE9F04104460D46DB
:10499000164614B90020BDE8F0812046FBF74AFC1A
:1049A000471C33462A4639462046FFF783FFF2E785
:1049B00070B504460D4604B10DB9012070BDAC427E
:1049C00001D10020FAE705E0207808B90020F5E7DA
:1049D000641C6D1C2078FBF703FC06462878FBF767
:1049E000FFFB8642F0D02078FBF7FAFB06462878DA
:1049F000FBF7F6FB301AE1E710B5044600BF082CC0
:104A000002DD4FF0FF3010BD00BFA100491C4FF484
:104A1000807202EBC1001021FFF7BEF900BFA100B8
:104A2000491C4FF4807202EBC100FFF735F90028F2
:104A3000F5D1A100491C4FF4007202EBC1001F2107
:104A4000FFF7AAF90120A0400F49098881430E48C9
:104A500001800120A0400D49098881430B48018055
:104A600000200B4921F814000A49085500BFA10095
:104A7000491C4FF4407202EBC100FFF70DF900280A
:104A8000F5D10120BFE70000A2000020A400002013
:104A9000D02A0020A600002070B504460D46164618
:104AA00000BF082C02DD4FF0FF3070BD00BF00BF1B
:104AB000A100491C002202EBC100FFF7EDF800F055
:104AC0000F00012802D06FF00400EEE700BF00BF26
:104AD000A100491C4FF4407202EBC100FFF7DCF863
:104AE000132802D06FF00200DFE700BF2978687852
:104AF00061F31F200146A87861F31F200146E87882
:104B000061F31F200146481C00B111B96FF00B0082
:104B1000CBE716B96FF00A00C7E7A100491C4FF4B4
:104B2000406202EBC10004222946FFF76FF93112FF
:104B3000A200521C4FF4805303EBC200FFF72CF984
:104B4000F1B2A200521C4FF4805303EBC20202F5F3
:104B50008070FFF721F9A100491C4FF4807202EB2D
:104B6000C1000421FFF718F900BFA100491C4FF450
:104B7000807202EBC100FFF78FF80028F5D1012009
:104B8000A0401B490988084008B100208DE722E0B9
:104B9000A100491C4FF4007202EBC100FFF77CF842
:104BA00000F0080058B1A100491C4FF4007202EB5C
:104BB000C1000821FFF7F0F86FF00C0075E7A100C5
:104BC000491C4FF4407202EBC100FFF765F810B9C1
:104BD0006FF0030069E7A100491C4FF4407202EB3B
:104BE000C100FFF759F81728D2D101205DE7000076
:104BF000A20000202DE9F0418EB004460E46314659
:104C0000204601F096F987B24FF000080025B81E43
:104C10000C2809D2DFE800F006090755827E8208D9
:104C20008282827F00BF00BF78E00AAA09AB616977
:104C3000E068CDE90132CDE903100BA808AB0B3ACF
:104C400006A900900E38FEF786F8012800D06AE029
:104C50000698C0B28DF81C0007AA0BA9204600F0E8
:104C60009DF89DF81C0058B39DF81C0001280AD13E
:104C7000BDF82000009000230422A1682069FEF7FF
:104C800091F980460DE09DF81C00022809D1BDF87D
:104C90002000009000230522A1682069FEF782F918
:104CA0008046B8F1000F02DC4FF0FF3505E03246D8
:104CB0004146204601F016FB0546681C00B932E06B
:104CC0002CE0E06800900DAA0CA90BA86369FDF721
:104CD000D1FF012802D04FF0FF3517E0BDF83400B6
:104CE000009000230622A1682069FEF75BF9B0F16D
:104CF000000802DC4FF0FF3508E03246414620460E
:104D000001F0F0FA051E01D04FF0FF35681C00B924
:104D100009E003E002E00020207700BF00BF20464A
:104D200000F0CCF900BF05B93D4628460EB0BDE8FD
:104D3000F0812DE9F84F05460C46164601274FF045
:104D400000084FF0040A0020206000BF4FF0FF3938
:104D500008F101008046042801DD00BF1BE0286D3A
:104D6000334601226946D0F804C0E0478146B9F1D4
:104D7000010F00D00FE09DF8001001F07F012068C6
:104D800001FB07002060FF019DF8000000F080009B
:104D90000028DBD100BF4046BDE8F88F2DE9FC417B
:104DA00004460E4690464FF0FF37002529E004F1F7
:104DB000240050F8350018B304F1240050F83510E1
:104DC0003046FEF7BAF838B904F1240151F835003D
:104DD000314600F038F998B104F1240000EBC50029
:104DE000406868B1424631466846FEF72BFC04F144
:104DF000240000EBC500416868468847002700BFD3
:104E00006D1C052DD3DB781C58B9E06C48B14246C7
:104E100031466846FEF716FC6846E16C8847002775
:104E200000BF3846BDE8FC8110B5044600BF082C21
:104E300002DD4FF0FF3010BD00BF00BFA100491CD4
:104E4000002202EBC100FEF727FF00F00F0001284F
:104E500002D06FF00400EEE700BFA100491C4FF440
:104E6000807202EBC1000821FEF796FF00BFA1008F
:104E7000491C4FF4807202EBC100FEF70DFF0028C1
:104E8000F5D10120A04015490988814313480180CC
:104E90000120A04012490988084008B10020CAE753
:104EA00010E0A100491C4FF4007202EBC100FEF7B4
:104EB000F3FE00F0080028B12046FFF79DFD6FF0DB
:104EC0000C00B8E7A100491C4FF4407202EBC1008E
:104ED000FEF7E2FE0028E4D10120ACE7A4000020A8
:104EE000A200002013B50C464FF47A7301226946E4
:104EF0000248FDF786FC00981CBD000078010020E8
:104F000001464FF6FF720868904201D1012001E08E
:104F10000868401C0860704770B5044600250026EC
:104F200000BFA100491C4FF4185202EBC100FEF76C
:104F3000B3FE0646A100491C4FF4185202EBC10112
:104F400001F58070FEF7A8FE00EB062086B2AEB138
:104F5000A100491C4FF4185202EBC100FEF79CFE61
:104F60000546A100491C4FF4185202EBC10101F59E
:104F70008070FEF791FE00EB052085B2B542D0D1DE
:104F8000284670BD70B504460025002600BFA1006C
:104F9000491C4FF4005202EBC100FEF77DFE0646AD
:104FA000A100491C4FF4005202EBC10101F58070D1
:104FB000FEF772FE00EB062086B2AEB1A100491CDE
:104FC0004FF4005202EBC100FEF766FE0546A10059
:104FD000491C4FF4005202EBC10101F58070FEF74D
:104FE0005BFE00EB052085B2B542D0D1284670BDEE
:104FF0002E2070472DE9F04105460E461746002445
:1050000005B116B90020BDE8F081AC685FB100E0E1
:1050100024688CB1206A78B13046216AFBF711F917
:105020000028F5D108E000E024682CB13046216A60
:10503000FFF7BEFC0028F7D10CB1206A08B90020A8
:10504000E1E72046DFE770B505460C462946A26831
:105050006068831825E010782F2803D108782F285E
:1050600000D022E008782B2807D00878232804D025
:1050700008781678B04200D017E008782B280AD1BB
:10508000501C02E0561C3246701C984202D2067830
:105090002F2EF7D103E00878232800D15A1E491C8F
:1050A000521C087808B19A42D5D300BF9A4203D166
:1050B000087808B9012070BD0020FCE77CB50446E3
:1050C0004FF0FF36A06908B9002620E004F1540033
:1050D000FEF7FEFBD0B1207FC0B96846FEF7F4FBB7
:1050E0004FF47A716846FEF7E7FBA1682069FEF786
:1050F00082F80546002D08DD6A462946204601F063
:10510000F1F8061E01D10120207700BF00BF304614
:105110007CBD0000FCF7A6F9FEF78EFBFEF7C2F996
:10512000FEF754FAFEF730FAFEF76CFAFEF794F940
:105130002F210AA0FBF7A2F828B12F2107A0FBF727
:105140009DF8401C00E005A004466222214608A00C
:10515000FEF7A0FEFBF7FAFD00BFFEE72E2E2F4361
:105160006F72652F5372632F6D61696E2E6300003D
:105170005B25733A25645D67617465776179207397
:10518000746172740D0A000010B5044621688868C5
:1051900001490968884710BDEC0000202DE9F04165
:1051A00080460C4600250027E068B0F57A7F02D3E0
:1051B0000020BDE8F081E068401CE060A168206844
:1051C000405C5B2800D05FE0A068401CA0602046E7
:1051D000FFF7FEFA4CB1D4E90110884205D2A1686C
:1051E0002068405C5D2800D13FE01CB1D4E901108B
:1051F000884203D3A068401EA06045E0A068401E1E
:10520000A06000BF04F11000FFF73FFB064606B99F
:105210003AE015B93546374602E03E6077603746DA
:10522000A068401CA0602046FFF7D2FA214638460D
:1052300000F084FA00B927E02046FFF7C9FA44B12C
:10524000D4E90110884204D2A1682068405C2C286F
:10525000D8D044B1D4E90110884204D2A1682068B2
:10526000405C5D2800D00FE000BFE068401EE060B9
:1052700005B16F602020C8F80C00C8F80850A0687D
:10528000401CA060012094E715B12846FFF7C4FA3E
:1052900000208EE702460023002100BF23E0505C7F
:1052A000302806DB505C392803DC505C303803447E
:1052B00015E0505C412806DB505C462803DC505C5E
:1052C000373803440BE0505C612806DB505C6628ED
:1052D00003DC505C5738034401E000207047032989
:1052E00000D21B01491C0429D9D31846F6E7000057
:1052F0002DE9FC5F81460C4600BF00200190FFF7BE
:1053000077FE83460026B246002000900CB120684C
:1053100010B90020BDE8FC9F00263AE0A168206893
:105320000844805D342820D00ADCA0F12B00092835
:105330002CD2DFE800F0202B21262B16171819009D
:10534000382816D006DC352810D036280FD037285C
:105350001CD10DE039280DD045280FD0652815D176
:105360000BE000BF00BF00BF00BF00BF00BF00BF19
:1053700000BF00BF00BF00BF00BF00BF0AF1010AAD
:1053800005E00AF1010A0120009000E008E000BFFA
:10539000761C24B1A068304461688842BED300BF47
:1053A0000AF101002169884705460DB90020B1E7DF
:1053B000A2682068811852462846FAF717FF002095
:1053C00005F80A00009848B1002605E0A85D2E28DF
:1053D00001D105F806B0761C5645F7D301A9284639
:1053E00001F098F8074688460198854204D128467E
:1053F0006169884700208DE7C9E90678154A164B90
:1054000038464146FBF746FA04D86FF00040C9F829
:10541000140011E00022114B38464146FBF722FAF6
:1054200004D84FF00040C9F8140005E03846414662
:10543000FBF7F9F9C9F814000820C9F80C00A068B6
:105440000199491B0844A0602846616988470120EA
:1054500060E700000000C0FFFFFFDF410000E0C187
:105460002DE9F04180460C4600260025E068B0F5A5
:105470007A7F02D30020BDE8F081E068401CE06044
:1054800044B1D4E90110884204D2A1682068405C8C
:105490007B2800D084E0A068401CA0602046FFF775
:1054A00097F94CB1D4E90110884205D2A16820686F
:1054B000405C7D2800D164E01CB1D4E90110884231
:1054C00003D3A068401EA0606AE0A068401EA060F0
:1054D00000BF04F11000FFF7D8F9074607B95FE0F5
:1054E00016B93E463D4602E02F607D603D4624B140
:1054F000A068401C6168884200D351E0A068401C4D
:10550000A0602046FFF764F92146284600F04EF8D7
:1055100000B945E02046FFF75BF9286928620020C2
:10552000286144B1D4E90110884204D2A1682068FE
:10553000405C3A2800D033E0A068401CA0602046C0
:10554000FFF746F92146284600F0F8F800B927E0B1
:105550002046FFF73DF944B1D4E90110884204D256
:10556000A1682068405C2C28B3D044B1D4E9011074
:10557000884204D2A1682068405C7D2800D00FE0FA
:1055800000BFE068401EE06006B175604020C8F8CA
:105590000C00C8F80860A068401CA06001206AE701
:1055A00016B13046FFF738F9002064E72DE9F84FCF
:1055B00080460C46A16820680844461CA168206803
:1055C0000844451C002000900027A1682068405C2A
:1055D000222800D0A6E04FF0000AD1460DE028783E
:1055E0005C2809D1681C2168401A6168884200D390
:1055F00098E009F101096D1C6D1C2068281A61688A
:10560000884202D228782228E9D12068281A6168C5
:10561000884202D22878222800D083E0A16820683E
:105620000844281AA0EB090A0AF1010021698847F9
:10563000074607B976E0009761E030785C2807D02C
:1056400016F8010B009908700098401C009056E075
:105650004FF00209A81B012800DA63E07078662881
:1056600019D008DC222832D02F2832D05C282FD045
:10567000622840D108E06E2814D0722819D074280E
:105680001ED0752837D12BE00820009908700098AB
:10569000401C009030E00C20009908700098401CDD
:1056A000009029E00A20009908700098401C0090A2
:1056B00022E00D20009908700098401C00901BE02B
:1056C0000920009908700098401C009014E000BF69
:1056D00000BF7078009908700098401C00900BE0A3
:1056E0006A462946304600F06FFF8146B9F1000F47
:1056F00000D117E000E015E000BF4E4400BFAE420D
:105700009BD30020009908701020C8F80C00C8F83E
:1057100010702068281AA060A068401CA0600120BA
:10572000BDE8F88F1FB1384661698847002716B178
:105730002068301AA0600020F2E7000070B505462E
:105740000C460CB1206808B9002070BD9CB1A0685F
:10575000001D616888420ED8A2682168881804225A
:105760003FA1FAF77CFD30B90420E860A068001D75
:10577000A0600120E9E79CB1A068401D61688842F3
:105780000ED8A26821688818052237A1FAF767FDAC
:1057900030B90120E860A068401DA0600120D4E776
:1057A000ACB1A068001D6168884210D8A268216869
:1057B000881804222EA1FAF752FD40B90220E860B1
:1057C00001206861A068001DA0600120BDE76CB1E8
:1057D000D4E90110884209D2A1682068405C2228DF
:1057E00004D121462846FFF7E1FEAEE7BCB1D4E97B
:1057F0000110884213D2A1682068405C2D2809D08E
:10580000A1682068405C302809DBA1682068405C02
:10581000392804DC21462846FFF76AFD95E76CB17C
:10582000D4E90110884209D2A1682068405C5B2855
:1058300004D121462846FFF7B1FC86E76CB1D4E9D4
:105840000110884209D2A1682068405C7B2804D1FD
:1058500021462846FFF704FE77E7002075E70000A1
:105860006E756C6C0000000066616C736500000072
:10587000747275650000000000B589B000200890C2
:105880000790069004900590042207A99001FEF766
:105890003DFA042206A94FF4A060FEF737FA06226B
:1058A00004A94FF41060FEF731FA042208A94FF45E
:1058B0007060FEF72BFA9DF8230000909DF82230CF
:1058C0009DF821209DF8201017A0FEF7E3FA9DF81F
:1058D0001F0000909DF81E309DF81D209DF81C10A3
:1058E00017A0FEF7D7FA9DF81B0000909DF81A301C
:1058F0009DF819209DF8181017A0FEF7CBFA9DF817
:1059000015009DF814109DF81320CDE90021029098
:105910009DF812309DF811209DF8101014A0FEF78C
:10592000B9FA09B000BD0000773535303020697014
:105930003A25642E25642E25642E25640A00000075
:1059400077353530302067773A25642E25642E254B
:10595000642E25640A0000007735353030206D61F3
:10596000736B3A25642E25642E25642E25640A0067
:105970007735353030206D61633A253032783A25FD
:105980003032783A253032783A253032783A25303C
:1059900032783A253032780A000000002DE9F041D3
:1059A00005460E462648076826480068001D00F098
:1059B000A1FE50B92348006890F82C1001208840BF
:1059C00021490968814320480160681CD8B9D6B1D3
:1059D0001E4948681B49096888601A498268096835
:1059E000CA6018490968091D82685160154909682B
:1059F000091D8160154A134909684A611146096801
:105A0000491C11601AE07C190E4800684460BC42D1
:105A100007D20C480168091D0D48006800F08EFE91
:105A20000CE008480168091D0A48006800F086FE7D
:105A300009480068844201D207480460BDE8F0814B
:105A400038000020240000203C000020BC02002080
:105A50002C000020280000205400002010B504462F
:105A600000F086FE2F480068401C2E4908602E4832
:105A7000006840B92C4804600846006801280DD130
:105A800000F016F90AE02948006838B9264800688D
:105A9000C06AE16A884201D823480460244800684B
:105AA000401C2349086094F82C10012088402149AB
:105AB000096808431F490860E16A01EB81011E4A39
:105AC00002EB81014868A0608268E260211D826863
:105AD00051608160E16A01EB8101174A02EB8102AA
